:10000000000C0020050600004F06000069060000F5
:1000100000000000000000000000000000000000E0
:100020000000000000000000000000004F0600007B
:1000300000000000000000004F0600004F06000016
:100040004F0600004F0600004F0600004F0600005C
:100050004F0600004F0600004F0600004F0600004C
:100060004F0600004F0600004F0600004F0600003C
:100070004F0600004F0600004F0600004F0600002C
:100080004F0600004F0600004F0600004F0600001C
:100090004F0600004F0600004F0600004F0600000C
:1000A0004F0600004F0600004F0600004F060000FC
:1000B0004F0600004F0600004F0600004F060000EC
:1000C000754400004F0600004F0600004F06000078
:1000D0004F0600004F0600004F0600004F060000CC
:1000E0004F0600004F0600004F0600004F060000BC
:1000F0004F0600004F0600004F0600004F060000AC
:100100004F0600004F0600004F0600004F0600009B
:100110004F0600004F0600004F0600004F0600008B
:100120004F0600004F0600004F0600004F0600007B
:100130004F0600004F0600004F0600004F0600006B
:100140004F0600004F0600004F0600004F0600005B
:100150004F0600004F0600004F06000085440000D7
:100160004F0600004F0600004F0600004F0600003B
:100170004F0600004F0600004F0600004F0600002B
:100180004F0600004F0600004F0600004F0600001B
:100190004F0600004F0600004F0600004F0600000B
:1001A0004F0600004F0600004F0600004F060000FB
:1001B0004F0600004F0600004F0600004F060000EB
:1001C0004F0600004F0600004F0600004F060000DB
:1001D0004F060000654400004F0600004F06000077
:1001E0004F0600004F0600004F0600004F060000BB
:1001F0004F0600004F0600004F0600004F060000AB
:100200004F0600004F0600004F0600004F0600009A
:10021000F8B5C046F8BC08BC9E467047F8B5C04665
:0C022000F8BC08BC9E46704700000000BF
:1002400040F61C5040F61C53C2F20000C2F20003FC
:1002500010B5834205D040F20003C0F2000303B1A1
:10026000984710BD40F61C5040F61C53C2F20000E7
:10027000C2F200031B1A9A10D90F8918491010B541
:1002800029B140F20003C0F2000303B1984710BD4A
:1002900010B540F61C54C2F20004237873B9FFF77E
:1002A000CFFF40F20003C0F200032BB140F2282040
:1002B000C0F2000000E000BF0123237010BDC04663
:1002C00040F20003C0F2000310B54BB140F62051DC
:1002D00040F22820C2F20001C0F2000000E000BF9E
:1002E000FFF7C0FF10BDC046402292029A1A924604
:1002F0007047C046174B002B00D1134B9D46FFF7AC
:10030000F3FF00218B460F461348144A121A00F0DF
:100310003DF80E4B002B00D098470D4B002B00D022
:1003200098470020002104000D000D48002802D04D
:100330000C4800E000BF00F031F82000290004F074
:1003400031FB00F011F8C04600000800000000007A
:1003500000000000000C00201C0D0020B830002020
:100360000000000000000000064B10B5040013B1AF
:10037000002100E000BF044B1B6803B19847200038
:1003800004F064FD00000000700E002003008218DD
:10039000934200D1704719700133F9E770B5002519
:1003A0000E4C0F4BE41AA410A54209D10025FFF70B
:1003B0002FFF0C4C0C4BE41AA410A54207D170BDC2
:1003C000074AAB009B181B6898470135ECE7064AC3
:1003D000AB009B181B6898470135EEE7140D002011
:1003E000140D0020180D0020140D002070477047D8
:1003F00070B505000C0079B1043C2368002B00DACD
:10040000E418280000F0DEF81C4A13682BB963607A
:100410001460280000F0DEF870BDA34208D92068FF
:1004200021188B42F3D119685B6809182160EEE747
:100430001A005B680BB1A342FAD911685018A042A8
:100440000BD120680918501811608342E1D1186857
:100450005B68411811605360DBE7A04202D90C23AE
:100460002B60D6E7206821188B4203D119685B689E
:100470000918216063605460CBE7C046800E0020FD
:1004800070B50F4E0D003168040011B900F0AAF8E4
:1004900030602900200000F0A5F8431C03D101259D
:1004A0006D42280070BD0323C51C9D43A842F8D0AF
:1004B000291A200000F096F80130F2D1EFE7C0468B
:1004C0007C0E0020F7B50322CB1C934308330500B4
:1004D0001F000C2B34D20C27B94233D8384E2800D9
:1004E00000F070F833681C00002C2FD13900280070
:1004F000FFF7C6FF0400431C5FD134680094009BE3
:10050000002B4AD1002C52D023682800E318009910
:10051000019300F067F8019B834248D123682800CB
:10052000FF1A3900FFF7ACFF013040D02368DB1918
:10053000236033685A68002A33D1009B336019E086
:10054000002BC9DA0C232B600020FEBD2168C91BDB
:1005500020D40B290AD9E2192760A34204D13260C2
:1005600063681160536005E05A60F9E76268A3426E
:100570000ED13260280000F02DF8200007220B3049
:10058000231D9043C21A9842DFD01B1AA350DCE708
:100590005A60EFE723006468A6E7009C6368009355
:1005A000ADE71A005B68A342FBD10023DAE70C2316
:1005B00028002B6000F00EF8C6E70760DAE7C046B7
:1005C000800E002010B50248FFF710FF10BDC04696
:1005D000780E002010B50248FFF709FF10BDC04695
:1005E000780E0020002370B5054D040008002B6034
:1005F00002F0ACFA431C02D12B6803B1236070BD3A
:10060000740E002002F0A2FB0649074A074B9B1A12
:1006100003DD043BC858D050FBDC054880F30A8852
:10062000FFF768FE1C5B0000000C00201C0D002082
:10063000000400207046EFF30881EFF30A8399422B
:10064000FED0EFF30982064B98470047FEE7FEE72E
:10065000ABBE044B744698472047C0467046F047EF
:1006600091140000492B00007046EFF30881EFF36E
:10067000098200F00DFF0000024B034A1A605A6025
:100680007047C04600040020FEFEFEFE70B55920F3
:1006900016248825224A234B013A58605C605D602D
:1006A00012B159680029F7D0032002F09FFD032002
:1006B00002F00EFF1C4802F0B3FE142002F09EFD73
:1006C000152002F09BFD162002F098FD182002F084
:1006D00095FD192002F092FD1A2002F08FFD1B20DB
:1006E00002F08CFD1C2002F089FD1D2002F086FD29
:1006F0000E4C1E2002F082FD1F2002F07FFD02F052
:1007000003FB40F200422000094904F095FB72B659
:10071000084B9C60BFF34F8F62B6FFF7ADFF70BD13
:10072000001BB700FC00004000D8B8050000002006
:100730000000000000ED00E0024B10309B688000DC
:10074000C150704700ED00E0002807DB1F2243097D
:1007500010401E3A824002499B005A507047C046E2
:1007600000E100E000280CDB1F22430910401E3A84
:100770008240044920339B005A50BFF34F8FBFF390
:100780006F8F704700E100E0F7B500272E4B2F4E2A
:100790001D6801903760FFF761FF80240300640546
:1007A00023405A4253415B42294A1B0F1B079B18A7
:1007B0000422DA60FFF752FF030023405A425341FC
:1007C0005B420199224A1B0F1B079B188A005A6043
:1007D000FFF744FF030023405A4253415B421C4A47
:1007E0001B0F1B079B189F60FFF738FF0300234078
:1007F0005A4253415B42164A1B0F1B079B180122AA
:10080000ED081A61FFF72AFF030023405A425341C3
:100810005B420F4A1B0F1B079B181B6963B9FFF74D
:100820001DFF030023405A4253415B42084A1B0FFD
:100830001B079B18986804E06B1E1DB901204042FD
:100840003060FEBD1D00DDE7840C0020601000203C
:1008500000C00050F7B5002401259C4202D103F0EE
:10086000F9F9F7BDA9B1A700CF59076247692F422F
:10087000FCD140F2001647693742FAD1076B52B1FA
:10088000BC466646A700D65147692F42FCD10134C9
:10089000E3E70162EAE70197019FF5E7F7B5002476
:1008A00001259C4202D103F0D5F9F7BDA9B167003B
:1008B000CF5B076247692F42FCD140F200164769BF
:1008C0003742FAD1076B52B1BC4666466700D65331
:1008D00047692F42FCD10134E3E70162EAE701975F
:1008E000019FF5E7F7B50024012540F200169C4270
:1008F00002D103F0AFF9F7BD79B10F5D0762476927
:100900002F42FCD147693742FCD1076B3AB11755EA
:1009100047692F42FCD10134E9E70162EFE7019713
:10092000019FF5E7F7B5002401259C4202D103F0B1
:100930002FFCF7BDA9B1A700CF59076247692F4225
:10094000FCD140F2001647693742FAD1076B52B129
:10095000BC466646A700D65147692F42FCD10134F8
:10096000E3E70162EAE70197019FF5E7F7B50024A5
:1009700001259C4202D103F00BFCF7BDA9B1670031
:10098000CF5B076247692F42FCD140F200164769EE
:100990003742FAD1076B52B1BC4666466700D65360
:1009A00047692F42FCD10134E3E70162EAE701978E
:1009B000019FF5E7F7B50024012540F200169C429F
:1009C00002D103F0E5FBF7BD79B10F5D076247691E
:1009D0002F42FCD147693742FCD1076B3AB117551A
:1009E00047692F42FCD10134E9E70162EFE7019743
:1009F000019FF5E7F8B51E00242343430E4A0D007E
:100A00009F580E49380000F0F2FD040080B1142018
:100A100031002056FFF790FE14202056FFF794FE79
:100A20000DB10020F8BD0121380003F0DFFBF8E72D
:100A300001204042F6E7C046D85A0000D4570000D3
:100A400070B5052817D80C4B1B68834213DD24238F
:100A500043430A4A0A499D58280000F0C8FD040093
:100A600048B114202056FFF76FFE280003F0BAFBB0
:100A7000606800F06CFD70BD7C5A0000D85A000020
:100A8000D4570000F7B50191052802D90120404252
:100A9000FEBD204B1B688342F8DD242444431E4BDB
:100AA0001E49E658300000F0A2FD05000028EDD0F8
:100AB000C2688168406800F040FD686800F042FD4F
:100AC000286900F035FD144B154AE418A56830007C
:100AD000290000F07DFD07270F210200A809294009
:100AE000384000F039FDE5680E4A2900300000F07A
:100AF0006FFD0F210200A8092940384000F02CFDAD
:100B0000019B0199013300D16168300003F072FB51
:100B10000020BDE77C5A0000D85A0000D4570000DE
:100B2000545900003C59000010B505280AD8074B5D
:100B30001B68834206DD242343430548185803F00D
:100B40007BFC10BD01204042FBE7C0467C5A000000
:100B5000D85A000010B505280AD8074B1B688342F5
:100B600006DD242343430548185803F04FFC10BD0D
:100B700001204042FBE7C0467C5A0000D85A0000E2
:100B800010B5052802D90120404210BD0C4B1B684E
:100B90008342F8DD242343430A4A0B49985800F066
:100BA00026FD04000028EED0006803F01BFB142093
:100BB0002056FFF7D7FD606800F0C9FC0020E4E78D
:100BC0007C5A0000D85A0000D45700000C4B70B576
:100BD0001B68834213DB0C2343430A4A0A499D588E
:100BE000280000F004FD040048B114202056FFF74F
:100BF000B9FD280003F0F2FA606800F0A8FC70BDAF
:100C0000745A0000805A000084560000084B1B688C
:100C1000834209DB0C2343430020064A06499A58C5
:100C200013680B401360704701204042FBE7C04649
:100C3000745A0000805A0000FFFFFFBF70B5032800
:100C400017D80C4B1B68834213DD302343430A4AF9
:100C50000A499D58280000F0CAFC040048B114203D
:100C60002056FFF771FD280003F08CFA606800F051
:100C70006EFC70BD785A0000A05A00005C5700005E
:100C8000F0B5060089B0032803D90120404209B01D
:100C9000F0BD734B1B688342F7DD30234343714A39
:100CA0009F589B181B790693012B79D16E49380008
:100CB00000F09DFC05000028E7D000226B49B3003E
:100CC0005A503023734367495B18D9690591596AB3
:100CD000039139B11B6A059C04920793079B049A00
:100CE00093425FDC3024A968EA68686800F025FC5C
:100CF0007443686800F026FC286900F019FC594B21
:100D00000F25E4180723A1688E091E400B002B4015
:100D10000493069B012B5ED1554A380000F058FC25
:100D200004990200300000F017FCE668514A3100D7
:100D3000380000F04DFC072331000200B0091840D4
:100D4000294000F009FCA6694B4A3100380000F048
:100D50003FFC072331000200B0091840294000F091
:100D6000FBFB039B002B5DD1059B38001E68434AAB
:100D7000310000F02DFC072329000200B0093140AA
:100D8000184000F0E9FBA26A3D49920052588021C8
:100D9000039B38000093C902E36A02F04FFE41E072
:100DA000384984E70F23012120680122034099403C
:100DB0000F23984302F0F2FD3C2104CC93000B403A
:100DC00031490A401343314A9B1801221A60049B9F
:100DD0009B18049382E72E4A380000F0F9FB04992F
:100DE0000200300000F0B8FBE6682A4A3100380003
:100DF00000F0EEFB072331000200B0091840294043
:100E000000F0AAFBA669244A3100380000F0E0FB9C
:100E1000072331000200B0091840294000F09CFB74
:100E2000039B0BB1002032E7059B38001E681B4A6C
:100E3000310000F0CDFB072329000200B00931404A
:100E4000184000F089FBA26A15499200525880218F
:100E5000039B38000093C902E36A02F007FFE1E751
:100E6000785A0000A05A00002C570000840E002081
:100E7000C4580000AC5800007C5800009458000092
:100E8000BC4F00005C570000C0010010004800404B
:100E9000245900000C590000F4580000DC580000F0
:100EA000BC4F00000368F7B5032B31D81A4A12680B
:100EB00093422DDA30215943184A8E18726A3AB398
:100EC0008268032A24DC164D9B005C5904B1FEE7BE
:100ED00001275F51114BCD58C36801693079B84281
:100EE0000AD1009104222100280002F0A7FD280069
:100EF00002F0B6FE2000FEBD00910A499200525851
:100F00002800210002F0B2FE280003F047F9F1E7C3
:100F100001246442EEE7C046785A0000A05A00005F
:100F2000840E0020BC4F0000026810B50400032AA4
:100F300019D80E4B1B689A4215DA302353430C4ADA
:100F40009A18516A79B10A4958581379012B07D177
:100F500002F07AFE00202368064A9B00985010BDDC
:100F600003F010F9F6E701204042F8E7785A000054
:100F7000A05A0000840E0020F7B5076806001D0087
:100F80000191032F00D9B2E05A4B1B689F4200DB4E
:100F9000ADE030237B4358495C587168564E206859
:100FA0009B191E6AC004C00EB14200DB9FE0DB69E2
:100FB0008900CB582AB125B16E6851688E4200D2A3
:100FC00095E03C219E000E404C490B401E434C4B8B
:100FD000F61833680BB100233360002A00D178E0A3
:100FE00030237B4344495B181B799C460ACA002D79
:100FF00040D02A68082813D8604601280CD1200068
:10100000FFF770FC0CCD302179433B480918097972
:10101000012966D1002133E02000FFF7CBFCF1E786
:10102000102813D8604601280CD12000FFF736FCA9
:101030000CCD30217943304809180979012952D162
:10104000002131E02000FFF791FCF1E76046012824
:101050000CD12000FFF7FEFB0CCD30217943264850
:1010600009180979012940D1002129E02000FFF762
:1010700059FCF1E76246082811D8012A0AD12A0052
:101080002000FFF72FFC019B012B01D001233360CF
:101090000020FEBD2A002000FFF78CFCF3E710289B
:1010A0000BD8012A04D12A002000FFF7F7FBEAE75A
:1010B0002A002000FFF75AFCE5E7012A04D12A00A4
:1010C0002000FFF7C7FBDEE72A002000FFF72AFC1D
:1010D000D9E7002DD7D0082800D893E71028BBD82F
:1010E000A6E70021D7E70021E3E70021EDE7012093
:1010F0004042CEE7785A0000A05A0000C00100101C
:101100000048004010B50D4CA368D9630C4B1B6818
:10111000B3FBF0F0802301385B0498420CD2C0216D
:10112000084A09065060236A1B021B0A0B4323620C
:10113000002393600733136010BDC04600ED00E04C
:10114000840C002010E000E07FB505001400C0B161
:101150000B2916D9AAB10020FFF716FB0190012038
:10116000FFF712FB02900220FFF70EFB0C26039004
:101170003200280001A903F05FFE0020266004B0C1
:1011800070BD01204042FAE7F7B5050008000029CC
:1011900061D06B055E0D33B980235B039D4205D2A0
:1011A0004A199A422FD30120404254E043F6FF727D
:1011B0002C4BEB1893421DD882224B1952039342B9
:1011C000F1D240F2FF73C918CB0A0193EEB1FFF7D9
:1011D00045FA80220300520513405A4253415B42B4
:1011E000214A1B0F1B079B18082219680A431A6023
:1011F000002715E041F6FF721C4BEB189342D2D842
:1012000089224B19DAE70126DBE72023184A116807
:101210000B431360ECE702F03FFA040030B90137EA
:10122000019BF80240199F42F5DB0024A6B1FFF7AD
:1012300015FA80220300520513405A4253410821F7
:101240005B42094A1B0F1B079B181A688A431A60E6
:10125000631E9C416042FEBD2021054A13688B43FA
:101260001360F5E70000F0FF00C000500000EFFF42
:1012700000C00040F0B505000E00140085B0002A43
:1012800047D080235B03984205D212189A420DD3AF
:10129000012040423EE043F6FF72294BC3189342BF
:1012A0003AD88222231852039342F1D203232A0010
:1012B0001A4001921D4212D00427BF1AA74200D93A
:1012C0002700280002F08AFA019B03A903903A0044
:1012D0003000C91803F0B0FDED19F619E41B270022
:1012E000A319DB1B60190193C01B032F1DD8A30892
:1012F0009B00E21A5F4201929C420AD003239C4366
:10130000601902F06BFA019A039003A9F01B03F035
:1013100093FD002005B0F0BD41F6FF72094BC318E4
:101320009342B5D889222318BDE702F057FA042268
:10133000039003A9019803F07FFD043FD0E7C04666
:101340000000F0FF0000EFFFF0B505000F001400F3
:1013500085B0002A62D080235B03984261D21218C4
:101360009A4269D2FFF77AF98022030052051340AE
:101370005A4253415B42424A1B0F1B079B180822EB
:1013800019680A431A6001232A00019303231A40B3
:1013900000921D4216D00426B61AA64200D9260095
:1013A000280002F01BFA009B039003A839003200CA
:1013B000C01803F041FD2800039902F07FFABF191D
:1013C000AD19A41B260063199B1BE1190093891B0F
:1013D000032E44D8032322001A401C420AD09C4307
:1013E000E119043B03A8039303F026FD0399281990
:1013F00002F064FA019B002B3BD0FFF72FF980220B
:101400000300520513405A42534108215B421C4AD3
:101410001B0F1B079B181A688A431A60002005B02F
:10142000F0BD43F6FF72174BC318934207D88222D0
:101430002318520393420BD301204042EFE741F6B9
:10144000FF72114BC3189342F6D889222318F0E794
:1014500020230E4A11680B431360002394E70422F3
:1014600003A803F0E9FC0399009802F027FA043E70
:10147000A9E72021054A13688B431360CEE7C046D5
:1014800000C000500000F0FF0000EFFF00C000406F
:1014900010B51400430602D5400700D40C001948CB
:1014A00001F02CFB2168184801F028FB61681748FF
:1014B00001F024FBA168164801F020FBE168154803
:1014C00001F01CFB2169144801F018FB6169134805
:1014D00001F014FBA169124801F010FBE169114809
:1014E00001F00CFB104B1B68012B02D102F05CFEDB
:1014F000FEE7022B04D10D4B1B680BB1200098476F
:10150000FEE7C046CC4F0000DB4F0000E84F000074
:10151000F54F0000025000000F5000001C5000006A
:101520002950000036500000940E0020980E002034
:1015300010B502F041FE002010BD10B501F0DAFD3B
:10154000002010BD10B501F059FE002010BD10B5EF
:1015500001F066FE002010BD13B50724104BC0003B
:101560000193019BC018CB17234001905B18019891
:10157000DB109B001B180193019B0A481B6801406C
:1015800004D5082001394042014301310F20890070
:10159000884083431A43019B00201A6016BDC04651
:1015A000300000400700008010B502F0FDFDFEE7AE
:1015B00010B50D2001F022FE02F00CFA034B186C5E
:1015C00003231840431E984110BDC04600500340FD
:1015D0000300080009B970470C3210680028FAD0DF
:1015E0009842F9D150688842F6D19068F3E702003A
:1015F000080003680BB9180070479342FCD01830FC
:10160000F7E70000024A1368013313607047C046D1
:101610009C0E0020014B18687047C0469C0E0020AD
:101620000300081A994289414942401A7047000054
:1016300073B50400054D2E68C0462B683000019339
:101640000199FFF7EDFFA042F6D973BD9C0E002073
:1016500010B50249FFF756FD10BDC0460516000043
:1016600070B504000E001500002120221030FEF796
:101670008DFE002026606560A060E06070BD704750
:1016800010B501F0A0FA002010BDF0B585B00D0036
:1016900016001C000190FFF7BDFF07003200290073
:1016A000019801F07CFA08B105B0F0BD631CF5D0DB
:1016B000C046FFF7AFFF039003993800FFF7B0FF74
:1016C000A042EBD901204042EEE770B504682568DE
:1016D00005B1FEE7012323602000A36A9847256037
:1016E00070BD70B50468256805B1FEE7012323606D
:1016F0002000E36A9847256070BD70B504682568CE
:1017000005B1FEE7012323602000236B9847256085
:1017100070BDF7B5056801932B680F00140003B185
:10172000FEE701232B601CB9200000232B60FEBDC7
:10173000EB6922001E0039002800019BB04760B110
:101740000028F2DB089B089A1B683F181B181360DF
:10175000019B241A1B180193E5E701204042E4E7AE
:10176000F0B589B004000391FFF754FF0690FFF72E
:1017700051FF079006980799FFF752FF04ABDE1D53
:10178000A36802905B6A65699978320001232000A2
:10179000A847050078B92023E26831781A420FD0B3
:1017A000403319420CD0A36802005B6AA66999799C
:1017B00003002000B04701256D42280009B0F0BDAC
:1017C00001231F008F4301971A4224D0A2682000F2
:1017D000526AD178626917003200B84702000028C7
:1017E000E9D1302133780B4207D0A368A5695B6A41
:1017F000D97903002000A847DDE7019A3AB9012012
:10180000FFF716FF029B039A9342B0D9D3E75BB26E
:10181000002BF4DAD1E7019B002BF0D0CDE7F0B537
:10182000050087B040680C0016000193FFF73AFBF3
:1018300000282ED1AB7C02AA1370AB68198C01234F
:10184000042902D1230E53700223210CD154200A03
:10185000D11804AF033348708C70049205933A009A
:10186000002301216868FFF787FB040048B9019B4A
:10187000210004933A00230068680596FFF77CFB7B
:1018800004006868FFF750FB04B93400200007B07B
:10189000F0BD01246442F9E7F0B5050087B0406867
:1018A0000C0016001F00FFF7FDFA00282CD16A4635
:1018B0006B7C1370AB68198C0123042902D1230EB1
:1018C00053700223210CD154200AD11803334870DD
:1018D0008C700292039301210023686802AAFFF72B
:1018E0004BFB040040B92200210004AB6868049758
:1018F0005E60FFF741FB04006868FFF715FB04B961
:101900003400200007B0F0BD01246442F9E7F0B5CF
:1019100085B000936B4605004068DC1DD971160048
:10192000FFF7C0FA0300F0B9012102AF6868029422
:101930007960A6B13A00FFF71FFB040048B9009B8D
:101940003A007B602100230068680296FFF714FBD1
:1019500004006868FFF7E8FA200005B0F0BD330026
:101960003A003100F2E701246442F5E7F0B587B0B0
:101970001E006B4605004068DC1DD9711700FFF79B
:1019800091FA0300B8B90121686802AA0294039190
:10199000FFF7F2FA040040B92200210004AB6868A6
:1019A00004975E60FFF7E8FA04006868FFF7BCFA86
:1019B000200007B0F0BD01246442F9E710B5836848
:1019C00084695B6A597800231A00A04710BDF0B5FE
:1019D000066885B0356802910192039305B1FEE770
:1019E00001233360019B9D4201D3002421E0029B2F
:1019F000019AEC18B368521BDF8B7B1E2340FF1A41
:101A0000974200D917003000FFF7D8FF326A039BD6
:101A1000944621003A00644630005B19A047041E3A
:101A200007DB40F2E8313000FFF79AFE30B10124C5
:101A3000644200232000336005B0F0BD0A9B0A9A7F
:101A40001B682D191B191360A742CBD0EFE70000CC
:101A50000021F0B5484B046885B06361474B06220E
:101A6000A361474B6162E361464B0500236202A814
:101A7000FEF78CFC06239F21200002AAFFF776FFC9
:101A8000060020B101267642300005B0F0BD3E4F81
:101A90000322380002A903F0C1F90123103F2B757E
:101AA00020B1029B013B0333ECD8384F0022EF6199
:101AB000A76022607A8C510503D51021E0680143AC
:101AC000E160B98BB8694143E960796AD2074ED5C4
:101AD00041F20002AA60CA7A2274FA8B2A617A6AF9
:101AE000127A62747A6A927AA274A26A4AB1E26A3B
:101AF0003AB1226B2AB1264A2A62264A6A62264AEB
:101B0000AA627A8C110603D50121E0680143E160E5
:101B1000910503D50221E0680143E160D10403D5BA
:101B20000421E0680143E160510403D52021E0680D
:101B30000143E1603B7C1F2B05D0892B03D0BF2BD9
:101B400001D0D205A0D52000FFF738FF6A46002358
:101B5000D371A36820005B6AA56919790732012354
:101B6000A84740F2E8312000FFF7FAFD8CE7BA6998
:101B7000AA604A7BB0E7C0466D1900000F1900004B
:101B8000991800001F1800008C590000A45900008B
:101B9000CB160000E3160000FB1600008368F0B5CA
:101BA0001500B2FBF3F2534385B0060004680191BF
:101BB0009D425FD1236803B1FEE701232360C36820
:101BC000AB4244D1E2680423110019400F001A42CD
:101BD0003DD12000FFF7F2FEA3683A005B6A2000C7
:101BE000997BA5693B00A84728B10120404200230A
:101BF000236005B0F0BDF368B26840F2E831B3FB92
:101C0000F2F320005943FFF7ABFD0028EDD1A368A4
:101C100020005B6AA569597900231A00A8470020B3
:101C2000E5E72000FFF7CAFE636A9BB12000019937
:101C300098470028DBD1B368019A40F2E831D21806
:101C400020000192ED1AFFF78BFD0028CDD1002D69
:101C5000E7D1DCE7A36801981B8C03AA19000139BE
:101C600005D2A069217C07002000B847E1E7505465
:101C7000000AF4E701204042BBE70000F8B5060087
:101C80000C0031B940F2C0122548FEF77FFB04205A
:101C9000F8BD234DE96831B940F2C0122800FEF7C3
:101CA00075FB0520F4E76B681A19914200D2CC1A33
:101CB000A968002C04DCEB688B421ED90020E7E702
:101CC00040F2001327009C4200DD1F000B0533B9D2
:101CD000B533FF3341F20002E85800F033F940F227
:101CE000B4103B003200A968285800F01BF9AB681B
:101CF000E41BDB19AB60F619DAE740F2B410094CCB
:101D000040F2001322000021285800F00BF92000B7
:101D100040F2C01200211438FEF738FBCEE7C0466F
:101D2000A00E0020B40E002070B50500FF2917D9C1
:101D300040F2B0130D4C0E4A0100D258200003F0BF
:101D40007BF8200000F056F900280CDB601F40F201
:101D500000122900FF3803F06FF840F2001070BD48
:101D600001204042FBE70220FBE7C046B80F0020FD
:101D7000A00E002040F2B01270B51C4C0600A25814
:101D800023690D009B18E2689A4207D940F2C012FD
:101D900000212000FEF7FAFA022070BDFFF7C4FF11
:101DA000002807DC40F2C01200212000FEF7EEFA06
:101DB0000320F2E7A368013D0133FF33A36040F243
:101DC000B813E358984740F2B4130136E058FF3D8A
:101DD00000F084F8FF366420002DDED040F2BC1302
:101DE00029003000E3589847D7E7C046A00E0020EE
:101DF0000C4B70B5DA600C4A40F2B81412680B4D07
:101E0000526B1D511A6140F2B012094D04341D513C
:101E1000293CFF3C9C500024043A9C50FFF7AAFF49
:101E200070BDC046A00E00200C0D002071480000BF
:101E30007D1C00000D4B70B5DA600D4A40F2B814FD
:101E400012680C4D926C1D511A6100220A4D043427
:101E50001D515A609A60293CB132FF32FF3C9C50C0
:101E6000043A933C9C50FFF785FF70BDA00E002004
:101E70000C0D00208D4800007D1C00000300002098
:101E8000992B04D80F221340063A9A4240417047DA
:101E900010B50400044883685A1E51185A420A407B
:101EA000210000F0B4FE10BD880C00201FB50B000F
:101EB00003A900910100024800F0E6FE05B000BD54
:101EC000880C00201FB50B0003A9009101000248F7
:101ED00000F0BAFE05B000BD880C0020030010B56C
:101EE00040B1026910002AB19268100012B19C2121
:101EF0001868904710BD030010B568B10269100062
:101F000052B1546820003CB10A0094321268012A90
:101F100003D894221868A04710BD0020022AFBD1E4
:101F20005E32F7E770B50D00040011001A0040B1F1
:101F3000036918002BB15E68300016B120682818BC
:101F4000B04770BD70B503000C00110040B10269CC
:101F500010002AB19568280015B118682018A84704
:101F600070BD70B50D00040011001A0040B1036986
:101F700018002BB11E68300016B160682818B047F1
:101F800070BD70B503000C00110040B10269100073
:101F90002AB19568280015B158682018A84770BD67
:101FA00070B50D00040011001A0040B1036918005B
:101FB0002BB15E68300016B160682818B04770BD5C
:101FC00030B5002348F2000448F2803541188842B9
:101FD00002D1180AC0B230BD027812025340082262
:101FE000234200D06B40013A5B00002AF8D1013057
:101FF000EDE700004378F7B502781B0213438278BF
:10200000040012041A43C3781B061343474A934241
:102010000DD1C37BF02B11D09321FFF7D1FF23000B
:1020200093331B78834270D00120404271E0404AD4
:10203000934203D1C37BF02B00D16BE02378442B78
:10204000F2D16078FFF71AFF0028EDD0A078FFF7F3
:1020500015FF0028E8D0E078FFF710FF0028E3D054
:1020600027793800FFF70AFF0028DDD066793000B5
:10207000FFF704FF0028D7D0A5792800FFF7FEFE60
:102080000028D1D0E37918000193FFF7F7FE00286C
:10209000CAD006233A095B425A43BF18FFB2142F35
:1020A000C2D9002EC0D032095A43B618F6B20C2E4F
:1020B000BAD8002DB8D02A095A43AD18EDB21F2D59
:1020C000B2D8019A12095343019AD318DBB2172BE5
:1020D000AAD8637A227A1B021343A27A12041A4303
:1020E000E37A1B061343134A9B18CC221203934234
:1020F0009AD823005C215F3320001D78FFF760FF32
:10210000854291D10223943401E0002394340020CD
:102110002360FEBD9321FFF753FF230093331B7809
:10212000834200D080E701239434F0E73A2837391E
:10213000DDCCBBAA0080FFFF10B50C0018B103690D
:102140000BB11B680BB9002010BD9C22006898479A
:1021500038B92000FFF74EFF0028F4D0022040429B
:10216000F2E70120FBE7F0B5EBB003AD0C0029006E
:102170000090FFF7E1FF0700002842D1289B012BC8
:1021800029D8AB7C6A7C2E7C1B04120213431E43AD
:102190002000FFF7A3FE320000212000FFF7F1FE30
:1021A0003500731B019340F200139D4218D85DB1B6
:1021B0002B0001992AAA0098FFF7D3FE2B002000DC
:1021C00001992AAAFFF7ECFE200003A9FFF793FE6E
:1021D00038006BB0F0BD0600022BD9D1AE68D7E74E
:1021E000711B40F200132AAA0098FFF7BAFE711B78
:1021F00040F2001320002AAA013DFFF7D1FEFF3D67
:10220000CFE701277F42E3E710B5094B012808D14A
:1022100029B918682830FFF761FE002010BD586802
:10222000F8E711B918683C30F5E75868FBE7C04695
:102230000C0D002010B5012810D141B9104B1868C1
:10224000596828302831FFF78EFF002010BD012982
:1022500012D10B4B586819682830F3E729B9084B9D
:10226000186859683C303C31EDE7012904D1044B32
:10227000586819683C30F6E701204042E6E7C0465E
:102280000C0D0020F0B51E4D03006F682868CFB01C
:10229000012B12D1283028376946FFF74DFF6B68B4
:1022A00004003BB327AD29003800FFF745FF3CB1E0
:1022B0004342584140004FB0F0BD3C303C37EBE763
:1022C00008B10120F7E7259B012B0CD8019B6A6818
:1022D000934205D1029AAB689A4207D1012002E0ED
:1022E0009A4240410230074B1856E4E704209A42D4
:1022F000E1D9F8E70028E4D001204042D8E7C04601
:102300000C0D0020CC590000F7B51F4906004A68A3
:102310001300BAB30023012834D10B685468DD6878
:102320005B682A0018002100019302F077FD33005A
:1023300040B3FEF793F980260300760533405A42F6
:10234000534108275B42114A1B0F1B079B181A6851
:1023500029003A431A602000FEF716FF2A0001996F
:102360002000FEF7F1FFFEF779F9030033405A42EF
:1023700053415B42054A1B0F1B079B181A68BA435F
:102380001A6002231800FEBD0C0D002000C0005092
:1023900037B5274C2268002A3FD0264B916B9942D3
:1023A00039D1254DD36829005268244800F0A6FB96
:1023B00022682900536B22480093D36A926A00F086
:1023C0009DFB22682900936C1E480093136CD26B0E
:1023D00000F094FB626832B3164B916B994220D1A6
:1023E000154DD36829005268174800F087FB6268D2
:1023F0002900536B15480093D36A926A00F07EFB64
:1024000062682900936C12480093136CD26B00F041
:1024100075FB00203EBD0F4DC4E70F4800F06EFB7A
:10242000D8E70C4DDDE70D4800F068FBF1E7C0464A
:102430000C0D0020600C0020B9500000CB500000B3
:10244000FB5000003951000085510000B5510000DB
:10245000F3510000C25000007751000031520000DB
:10246000012310B5984210D10B4A116859B1526836
:102470006AB14C68506884420BD0C968D2689142F6
:1024800003D0032300E001235B42180010BD0423A6
:10249000FAE70223F8E7C0460C0D0020034B1B6847
:1024A000D86A41F20003C0187047C0460C0D0020E6
:1024B00010B594B05022002104006846FDF766FF75
:1024C0000E4B6A461868002150231430FFF749FD6F
:1024D0000B4B009A9A4209D0022323803033636069
:1024E000002301202381A37214B010BD0C22200010
:1024F00011A902F0A1FC0020F6E7C0460C0D002057
:10250000434D4241012110B5024B49421868FEF784
:10251000B9FA10BDD45A000007B56B46D91D087032
:1025200001220020FEF700FB07BD9A4200D288542A
:1025300070477047F0B591B0049316AB10CB189E5E
:102540001B781A9F059302901B9B039101920CB973
:102550001022934340F200421900114006911342A9
:1025600000D0E4B161219A0600D541212200002566
:10257000C9B20A390791B2FBF6FC64467443079965
:10258000141BE0B24118C9B2092C01D83030C1B2D5
:1025900008A86C1C2954B24201D3202C11D102226C
:1025A00019001140079113421CD1013A1A4037B16A
:1025B0002AB1059911B90C310B4200D0013F3021ED
:1025C00007E025006246D6E7202C05D008A8215454
:1025D00001341998A042F7D822B13022A74201D97C
:1025E000202C13D1DA063ED5069AA2B99CB1199ACD
:1025F000A24201D0BC420ED1621E012C0AD0023C84
:10260000102E0AD01400022E29D139E008A96254F4
:102610000134E3E71400102E2ED19A0617D4782245
:10262000202C17D120249B0746D0019B2500059321
:10263000059B1819421B002D40D1079B2BB1019B14
:10264000C41A019B1819A74240D811B0F0BD202C24
:10265000E8D0582208A90A550134202CE2D03022B3
:1026600008A90A550134202CDCD0059A52B12D223C
:1026700008A90A550134D6E7022EEED1202CD1D07C
:102680006222E7E75A0701D52B22F1E71A07CAD5DC
:102690002022EDE72020049B0399029EB0470135DC
:1026A000019B1A1B5219AF42F4D80026A74200D34F
:1026B0003E1B019BF318B9E72500F1E708AB013D8C
:1026C000E85C0399049B029EB047B1E70200049BBB
:1026D00020200399029DA8470134B2E710B508B144
:1026E000FFF71AFF10BD0000F0B591B01F00169C57
:1026F00009900A91089209B9B34B09930026FAE0B0
:102700000137252806D03200751C089B0A99099EBE
:10271000B04757E100230122082522E02D2838D0B8
:1027200030281CD0002206920200303A0A25092ADD
:1027300020D83978781C0A00303A092A32D9002189
:102740003A7807912E2A4CD140F200410B43797818
:102750007A1C08003038092839D80A272FE013439B
:102760000F003878791C2B2816D0D7D8202815D000
:10277000232815D0002206922A28E0D104CC069204
:10278000002A04DA02221343069A524206920F00EC
:10279000D5E702200343E3E70420FBE72B43DFE711
:1027A0001020F7E7069A07006A43303A8A18069223
:1027B000BFE7079A7A43303A8A1807922A001178BD
:1027C000551C080030380928F3D9170009E02A29D8
:1027D000FBD104CC02370792D2430799D21711409C
:1027E00007913A78791C6C2A22D01CD8682A27D005
:1027F0006A2A2DD0390008784F1C782883D863289E
:1028000029D8622800D14CE1632800D195E0252821
:1028100000D178E7582800D075E720221343103AFA
:102820000C218B4348E17A2AE4D140F200120BE0FC
:102830007A786C2AF9D140F200321343B91CDAE7F6
:102840007A78682A02D080221343D4E7C022F4E7C2
:1028500040F20022F8E7010001226439C9B28A403F
:1028600011005A4D29402A4219D1732800D1AFE0F6
:10287000702800D047E721221343059308230493CF
:10288000079B019103931023029308CC320000931D
:102890000A99089B0998FFF74DFE06002BE06F2868
:1028A00000D000E10822BBE77828B9D093430A2280
:1028B000642800D100E1B3E72168580601D5C9B208
:1028C0000EE1180600D40BE109B209E199B9251D02
:1028D000D80521D50593069B02920493079B01918D
:1028E0000393236800933200089B0A990998FFF725
:1028F00021FE2C0006003878002800D000E7089B55
:1029000032009E4200D35A1E0020089B0A99099C5F
:10291000A047300011B0F0BD2168580609D5C9B2F2
:102920000593069B02920493079B03930023019354
:10293000E1E01806F4D589B2F2E70222190011404D
:102940000C91134228D001230793230001CB3200BE
:102950000B930A99089B751CC0B2099EB0470C9B4B
:102960007BB32A00079E22E02020089B0A99099D3C
:10297000A847079A0699531C07939B1B9942F3D8C3
:10298000022309B10B000133069A079300230AB111
:102990001300013BF618D8E73200EBE7531C0C9309
:1029A0002020089B0A99099CA0470C9A0136069B97
:1029B000B342F3D8069A079900238A4200D3531AE8
:1029C000ED180B9C2E0096E733250000210812001D
:1029D000220002CA0C92079A0B910AB901225242B4
:1029E0000B990C008A18217809B1A24214D10B9AD4
:1029F0001900A41A40F2004211400D91134203D075
:102A0000079A944200D914000222190011400E9135
:102A1000134217D1320009E00134E4E7531C0F934D
:102A20002020089B0A99099DA8470F9AA31B069985
:102A30009B188B42F2D30023A14200D30B1B01341D
:102A4000E418F618350008E007936B1C2A000F9372
:102A5000099D089B0A99A8470F9D0B9B9B1B585DDE
:102A600038B10D9B002BF0D0079B079A013B002A41
:102A7000EAD10E9B9BB12A0007E0531C079320204C
:102A8000089B0A99099EB047079A631B0699D318B9
:102A90009942F2D80023A14200D30B1BED180C9CE5
:102AA00090E70222BCE610226F2800D9FCE693438F
:102AB0000A22692800D0FAE6590501D501218B4385
:102AC00040F200211940692802D0642800D0FDE6B8
:102AD000002900D00FE7251DD90500D4ECE62168B8
:102AE0000593069B02920493079B0393CB0F0193DC
:102AF000CB17C91859400091F5E6C0460FB41FB571
:102B0000012206A908C9524203910091034802A973
:102B1000FFF7EAFD05B008BC04B01847DD26000049
:102B20000EB4012210B585B007AC08CC01000094AA
:102B3000524204480394FFF7D7FD05B010BC08BC0F
:102B400003B018472B25000000207047030010B584
:102B5000EFF3108172B6084A084C1068C318A342FC
:102B600006D8074CA34203D3136001B962B610BD67
:102B700001204042F9E7C046780C0020FCFF03200A
:102B8000B8300020004870473F5200008368016859
:102B90005A1C82604268013A1340C85C7047F8B51D
:102BA00006000F00140015001DB1B268F3689A42C8
:102BB00001D1601BF8BD3000FFF7E8FF6A423B1906
:102BC0009854013DF0E7C36830B5426884681B1B28
:102BD000934208D0C36804685D1CC5600020013AB8
:102BE0001340E15430BD01204042FBE7436810B57B
:102BF00004003BB100221B68C262984728B9012338
:102C0000E36410BD01204042FBE70320FBE770B501
:102C10000400B0B18368A3B1436893B15B6883B12A
:102C2000C06888420DD9401A90420AD300203AB1B8
:102C3000E56A05B1FEE70120E06220009847E56201
:102C400070BD01204042FBE7F7B504000020089F5B
:102C50003860B4B1E068884213D9401A904210D36A
:102C60006AB1606868B186685EB1E56A05B1FEE781
:102C70000120E06220000097B047E562FEBD100031
:102C8000FCE701204042F9E7F7B504000020089F67
:102C90003860A4B1E068884211D9401A90420ED33E
:102CA000606860B1C66856B14AB1E56A05B1FEE731
:102CB0000120E06220000097B047E562FEBD0120E0
:102CC0004042FBE730B5040085B00800A4B1E36CD6
:102CD00093B189B1E369227D03B9094BE168A46826
:102CE0000091A50A02940C0D039506490194FFF783
:102CF00017FF002005B030BD01204042FAE7C04672
:102D0000575200005C52000010B500F0F5FB40F691
:102D10007C43C2F20003186000F062F84AF220120D
:102D200040F68443C0F20702944644F24022C2F2C5
:102D300000031860C0F20F0240F680436044B0FB0D
:102D4000F2F0C2F20003186010BDC04670B5FDF786
:102D500085FCC0001BD4802340F2001259251624A4
:102D60008820DB059D509C50985099580029F9D037
:102D700040F2F41241F20001995044F200030C3287
:102D8000C4F200025168CFF6F0730B43536040F277
:102D900000034EF60052C0F20003CEF20002936030
:102DA00070BDC04610B5FFF7AFFF40F68443C2F2D6
:102DB0000003186810BDC04610B5FFF7A5FF40F628
:102DC0008443C2F20003186810BDC04610B5FFF777
:102DD0009BFF40F68443C2F20003186810BDC04652
:102DE00030B58BB044F6CC6302A90A00C0F20003F0
:102DF00031CB31C231CB31C211CB11C240F20123F0
:102E0000C0F20243019340F20023C4F200039C6825
:102E10001B6C0020DA0305D49A0336D541F6003046
:102E2000C0F2B70040F67C4340F20022C2F2000339
:102E300018600723C4F2000215692B40012B3AD019
:102E4000022B01D09B00C85840F20023C4F20003BB
:102E50001A6A0F2313400133B0FBF3F040F68443AA
:102E60004AF2201244F24021C2F20003C0F20702EB
:102E700018608218C0F20F0140F68043B2FBF1F2F5
:102E8000C2F200031A600BB030BD40F2FF124CF2E8
:102E9000C0601A4002325200C0F22D0050431A04A2
:102EA000920F01AD9B04AA5CDB0E01335343B0FBD0
:102EB000F3F08000B6E70221214218D1936840F276
:102EC00000100B43936041F20003C4F2040318584E
:102ED000402303405842434140F2003047F6005C33
:102EE0005B421840936860448B439360ACE741F2C7
:102EF000000340F2001248F2000CC4F20403985898
:102F0000024B4006C017184060449DE700FDFFFFDC
:102F1000F0B540F2002710240422C64640F684464D
:102F2000C4F200073B6D00B51C403B68C2F20006CE
:102F300013433B6033688846844610215A0801E0F9
:102F4000013A12B13D6D2942FAD040F20022072722
:102F5000C4F20002156940F2F8103D438027156164
:102F600080211A00FF0501E0013A12B13D582942C3
:102F7000FAD1802540F2F8170321ED05EA598A437A
:102F8000EA51FA31F83FFF31FF3F01E0013B13B155
:102F90006A581742FAD14CF200020F250427C4F2F6
:102FA0000002D36C4146AB433B43D36440F2002361
:102FB000C4F200031A6AAA430A4307211A621A6973
:102FC00080258A4361460A431A61FFF79DFE3668F1
:102FD00040F2F81033008021ED0501E0013B13B110
:102FE0002A581142FAD149F2FF3345F2FF02CFF6D7
:102FF0002353C0F22522F31893424AD8802140F28D
:10300000F8120320C9058B588343023803438B50C1
:103010008025330040F2FC100121ED0501E0013B69
:1030200013B12A581142FAD140F6807347F63F0295
:10303000CFF60553C0F27D12F318934215D84CF227
:1030400000020F21C4F20002D36C8B430C390B43F6
:10305000D3643CB940F200230421C4F200031A688F
:103060008A431A6080BCB846F0BD48F2C073CFF600
:103070008263F318934231D99642EAD84CF20002A7
:103080000F21C4F20002D36C8B430E390B43D3647F
:10309000DFE74FF2FF6346F2FF22CFF6C273C0F2C2
:1030A0009F22F31893420ED940F60013C0F23D035D
:1030B0009E42ADD8802140F2F8120320C9058B58FA
:1030C00003438B50A4E7802140F2F8120320C90586
:1030D0008B588343013803438B5099E74CF200022D
:1030E0000F21C4F20002D36C8B430D390B43D36420
:1030F000AFE7C046F0B54746CE4644F6CC6380B550
:10310000C0F2000389B01C006E4620348846914608
:1031100086CC86C624683033346004AC260086CB67
:1031200086C61B686D46336040F200230126C4F258
:103130000003C4F200069F68B04234D0FF239B0214
:10314000184213D003039B0F9B001E5940F220230B
:10315000C4F200039C4684038705240EFF0EBC4086
:103160004A4666443368A34313433360E0231B0598
:10317000184213D083009B0F9B00EC5840F21023A1
:10318000C4F200039C460201C001520FC00E8240EF
:1031900064442368934342461343236009B0C0BC90
:1031A000B946B046F0BD02223A4212D141F20004C3
:1031B00040F20015802641469868C4F2040410438A
:1031C00098606059B0430143615199689143996097
:1031D000E4E741F2000240F2001080244146C4F2CC
:1031E00004021358A3430B431350D7E740F20023C4
:1031F000C4F200031A6802431A60704740F20422C6
:103200001F21C4F200029446012201408A40830F2C
:1032100010B59B0063441C6822431A6010BDC04671
:1032200040F20422C4F2000294461F22012102400F
:103230009140830F9B0063441A688A431A60704769
:10324000F0B55746DE464E46454640F20023802202
:10325000E0B5C4F200030F00196C52020A4385B0B6
:103260001A6440F68442C2F20002116804001A682F
:103270004908002800D0A5E0012002431A6001257A
:103280000A0001E0013A12B1186D0542FAD04CF67D
:103290000023CFF69163FA1848F60043C0F67D2369
:1032A0009A4200D9AFE043F2FF53C0F26E139A4244
:1032B00000D995E04CF200031C430423BF0048F6FC
:1032C0008055C0F25B05012041F6003B00954EF6AB
:1032D000002540F2000A002240F2030840F20226D4
:1032E0004042C0F2B70BC0F23265019102930394E1
:1032F00005E040F2010CE0444346212B38D047F66C
:103300008031BBFBF8F3CFF6E171009C5918A14264
:10331000EFD85C009B00914684460222F81A0AE02E
:10332000D91B8C4502D9C24691468C4601321B19E5
:10333000001BB24214D042F60001CFF647215918C3
:10334000A942F3D89F42EBD38445EFD9C246002867
:10335000CFD09146013284461B19001BB242EAD1FC
:10336000604640F2010CE04443464A46212BC6D158
:103370005046039C0138951E2C434002204340F2E6
:103380000024C4F20004029B019920645046434388
:1033900041F60030C0F2B700B0FBF3F350005843E1
:1033A00040F200220424C4F2000201E0013911B10C
:1033B000136D1C42FAD005B0F0BCBB46B246A9461C
:1033C000A046F0BD042002431A6010250A0003E065
:1033D000013A002A00D15AE7186D0542F8D056E7A5
:1033E00049F2004246F6FF30CFF62352C0F2DC200D
:1033F000BA180123824200D961E744F200037F003A
:103400001C4302235BE74CF20E231C4340F20023D3
:1034100046F60040C4F200031C64C0F2DC20BFE7A3
:1034200040F20023C4F2000370B51E6D43F2006346
:10343000C0F26E130100984200D219004DF600034D
:10344000C0F2B853994200D9190040F20024042276
:10345000C4F20004236810251343236040F684431C
:10346000C2F200031B685B0801E0013B13B1226D4F
:103470001542FAD040F200240722C4F20004236966
:1034800013432361236A083293432362236DDB07CE
:1034900014D50020FFF7D4FE10240500344000218D
:1034A0000220FFF735FD3CB940F200230421C4F2AD
:1034B00000031A688A431A60280070BD8020000348
:1034C000FFF7BEFE236D102405001C40E7E7C04651
:1034D00040F6844340F20021C2F200030200186863
:1034E000C4F20001400801E0013820B10B6D134027
:1034F0009342F9D10120704740F2012382B0C0F21B
:103500000243019340F20023C4F200031B6C00202D
:10351000DA0316D49A0316D440F2FF124CF2C060BC
:103520001A4002325200C0F22D0050431A04920F8A
:1035300001A99B048A5CDB0E01335343B0FBF3F01B
:10354000800002B0704741F60030C0F2B700F8E7E3
:1035500070B544F6CC6384B002006846C0F2000344
:10356000203370CB70C01B686946036040F20023B3
:103570000120C4F20003C4F200009C68824231D0F2
:103580001020C8F20000824227D01120C8F20000AB
:10359000824247D01220C8F2000082423ED013205F
:1035A000C8F20000824241D0E02310001B05184001
:1035B0001A4215D093009B0F9B005B5840F21021DC
:1035C000C4F200018C4663441868D3011201DB0E7B
:1035D000520F9A401040D84002E001209B691840E9
:1035E00004B070BD022222420FD1996840F200104F
:1035F0001143996041F20001C4F20401085899682E
:1036000000069143C00F9960EAE741F20003FE32E1
:10361000C4F2040398580006C00FE1E79869C0059A
:10362000C00FDDE798698007C00FD9E7986980056A
:10363000C00FD5E770B544F6CC6384B0020068468D
:10364000C0F20003303370CB70C01B686946036062
:10365000FF2310009B0218401A4211D013039B0F46
:103660009B005B5840F22021C4F200018C46634469
:10367000186893059203DB0E120E9A401040D84052
:1036800004B070BD4CF200030121C4F200031A68BB
:103690008A431A607047C046F8B541F260070023BC
:1036A000C2F2000704003B60FCF7D8FF802503004E
:1036B0006D052B405A4253414CF20002C5F2000204
:1036C000944622225B421B0F1B076344DA60FCF71F
:1036D000C5FF03002B405A4253414CF20002C5F291
:1036E000000294465B421B0F1B0763445C60FCF7BF
:1036F000B5FF03002B405A4253414CF20002C5F281
:103700000002944601225B421B0F1B0763441A61AF
:1037100040F68443C2F200031C680126A40802E0BC
:10372000631E54B31C00FCF799FF03002B405A4260
:1037300053414CF20002C5F2000294465B421B0F5B
:103740001B0763441B691E42EAD10024FCF786FF75
:10375000802503006D052B405A4253414CF2000274
:10376000C5F20002944640265B421B0F1B076344D0
:103770001B681E4204D12000F8BD1C003B60E5E739
:10378000FCF76CFF03002B405A4253414CF20002FD
:10379000C5F20002944601245B421B0F1B076344E1
:1037A0001A68644232431A603C60E4E710B5FCF7E3
:1037B00055FF80220300520513405A4253414CF2F8
:1037C0000002C5F20002944601215B421B0F1B0759
:1037D00063441A680A431A6010BDC046F8B541F246
:1037E00060070026C2F2000704003E60FCF736FFC7
:1037F000802503006D052B405A4253414CF20002D4
:10380000C5F2000294465B421B0F1B076344DE6057
:10381000FCF724FF03002B405A4253414CF20002B4
:10382000C5F2000294465B421B0F1B0763445C60B9
:10383000FCF714FF03002B405A4253414CF20002A4
:10384000C5F20002944601225B421B0F1B07634432
:103850001A6140F68443C2F200031C680136E40892
:1038600002E0631E2CB31C00FCF7F8FE03002B40A3
:103870005A4253414CF20002C5F2000294465B42A8
:103880001B0F1B0763441B691E42EAD1FCF7E6FECF
:1038900080220300520513405A4253414CF2000269
:1038A000C5F2000294465B421B0F1B0763449868F5
:1038B000F8BD012040423860FAE7C046F8B541F251
:1038C00060070023C2F200070C0006003B60FCF713
:1038D000C5FE802503006D052B405A4253414CF232
:1038E0000002C5F20002944621225B421B0F1B0717
:1038F0006344DA60FCF7B2FE03002B405A425341A6
:103900004CF20002C5F2000294465B421B0F1B07FB
:1039100063445E60FCF7A2FE03002B405A42534111
:103920004CF20002C5F2000294465B421B0F1B07DB
:1039300063449C60FCF792FE03002B405A425341C3
:103940004CF20002C5F20002944601225B421B0FBA
:103950001B0763441A6140F68443C2F200031C68EB
:103960000126E40802E0631EA4B11C00FCF776FE09
:1039700003002B405A4253414CF20002C5F20002B0
:1039800094465B421B0F1B0763441B691E42EAD12E
:103990000020F8BD012040423860FAE7F0B5C64685
:1039A000002390460126032700B534000D009C40FB
:1039B0002540AC4208D13A005D00AA400468944317
:1039C0004246AA40144304600133102BEDD180BC61
:1039D000B846F0BD45F2000040F68443C4F203004F
:1039E0008268C2F2000310B51B68120616D41A00D2
:1039F000042401E0013AF2B181680C42FAD140F2AC
:103A00000112026045F200001A008024C4F2030093
:103A100001E0013A7AB181680C42FAD045F2000126
:103A20000420C4F2030101E0013B23B18A68104283
:103A3000FAD1002001E00220404210BDF0B5C64698
:103A400004000D00160000B5202B01D01B021E4300
:103A5000FFF7A8F90700FFF7AFF980465DBB012328
:103A60003343A5602360069B9F420FD90023C4F215
:103A700006039C4268D00023C5F206039C4263D033
:103A800000232800636080BCB846F0BDFCF7E6FD6B
:103A9000802302005B0518401A4249D10023C4F27A
:103AA00006039C4270D00023C5F206039C426BD0F3
:103AB00000236360E7E70122002335431543A36039
:103AC00025606360FCF7CAFD802302005B05184097
:103AD0001A4215D10023C4F206039C4204D00023ED
:103AE000C5F206039C42CED140F200220C21C4F262
:103AF000000293698B4304390B4393614046C2E74C
:103B00000023C4F206039C4205D00023C5F206033D
:103B100000209C42B7D10C20C6F22060FFF718FDB0
:103B20008000002874D141F60030C0F2B700AAE747
:103B30000023C4F206039C4230D00023C5F20603E2
:103B40009C422BD00020B3E70C20C6F22060FFF788
:103B5000FFFC800078B30C20C6F22060FFF7F8FC71
:103B60008000042869D00C20C6F22060FFF7F0FC2A
:103B7000800008285ED041F60030C0F2B700069BF6
:103B80009F4295D905001AE040F200220C21C4F2B0
:103B9000000293698B4304390B4393610C20C6F2F6
:103BA0002060FFF7D5FC80000028D4D141F600301A
:103BB000C0F2B7007CE741F60035C0F2B705069BBE
:103BC000AB4200D35CE7069B33B940F2FF12636857
:103BD000680A1343636056E7A800069B401940003B
:103BE000B0FBF3F00A230530B0FBF3F0F633421ECE
:103BF000FF339A4204D96268680A1343636042E75C
:103C00006368B5FBF0F05B0A5B02134363603AE75D
:103C10000C20C6F22060FFF79BFC800004280FD028
:103C20000C20C6F22060FFF793FC8000082800D02B
:103C300079E763E7FFF7C0F8A1E7FFF75DFC9EE7D0
:103C4000FFF75AFC1FE7C046012203689343036055
:103C50007047C04640F20012036913430361704786
:103C600009228368934383607047C046F8B547468E
:103C7000CE460E00012180B51700026E04008A4373
:103C80000266202B01D01B021F43FFF78BF88046F2
:103C9000FFF792F80500FFF799F88146002E00D053
:103CA0009FE001233B43A6602360089B984544D9CD
:103CB00041F20003C4F206039C4200D177E041F2D6
:103CC0000003C5F206039C4200D170E042F20003FB
:103CD000C4F206039C4200D13EE142F20003C5F269
:103CE00006039C4200D137E143F20003C4F206030D
:103CF0009C4200D10EE143F20003C5F206039C4250
:103D000000D107E10620CAF2C060FFF721FC0003E2
:103D1000002800D09EE141F60035C0F2B705089BAF
:103D2000984503D9089B9D4200D9B1E00023636008
:103D30002800C0BCB946B046F8BDFCF78FFCC000F7
:103D4000B6D441F20003C4F206039C4200D161E103
:103D500041F20003C5F206039C4200D15AE142F24F
:103D60000003C4F206039C4200D194E142F2000336
:103D7000C5F206039C4200D18DE143F20003C4F278
:103D800006039C4200D1E5E143F2000340F2002229
:103D9000C5F20603C4F200029C4200D1B3E093696D
:103DA000D6490B4042F200010B439361AAE70D2074
:103DB000C6F24060FFF7CCFB00010028ABD00D201D
:103DC000C6F24060FFF7C4FB0001102800D1E1E01B
:103DD0000D20C6F24060FFF7BBFB000120289AD1FE
:103DE000B6E0012200233E431643A36026606360D1
:103DF000FCF734FC41F20003C4F20603C00052D5C4
:103E00009C4200D1EAE041F20003C5F206039C4265
:103E100000D1E3E042F20003C4F206039C4200D169
:103E200070E142F20003C5F206039C4200D169E151
:103E300043F20003C4F206039C4200D13EE143F288
:103E40000003C5F206039C4200D137E10620CAF206
:103E5000C060FFF77DFB0003A8B10620CAF2C06076
:103E6000FFF776FB41F200030003984200D164E1C2
:103E70000620CAF2C060FFF76BFB42F200030003AA
:103E8000984200D154E741F60035C0F2B7054FE73C
:103E9000089B002B00D08DE040F2FF1263686D0A92
:103EA0001343636044E79C4278D041F20003C5F2BB
:103EB00006039C4272D042F20003C4F206039C4205
:103EC00000D1DDE042F20003C5F206039C4200D1BE
:103ED000D6E043F2000340F20022C4F20603C4F22B
:103EE00000029C4200D12CE143F20003C5F206031C
:103EF0009C4200D125E1936980490B4042F20001C8
:103F00000B43936114E793697D490B4040F6000130
:103F10000B4393610F20C6F2A060FFF719FB8002EC
:103F2000002800D1F7E60F20C6F2A060FFF710FBD3
:103F300040F20043800298422CD00F20C6F2A060CD
:103F4000FFF706FB40F600038002984200D0E2E64D
:103F5000FEF73CFF0500E2E60E20C6F26060FFF7C8
:103F6000F7FA8001002800D1D5E60E20C6F2606085
:103F7000FFF7EEFA800140280CD00E20C6F26060F8
:103F8000FFF7E6FA8001802800D0C4E6FEF714FFB0
:103F90000500C4E6FFF7B0FA0500C0E640F20022D3
:103FA0003021C4F2000293698B4310390B439361B3
:103FB0004D46BDE6AB00089A5B195B00B3FBF2F31C
:103FC0000A220533B3FBF2F3F632591EFF32914257
:103FD00038D963686D0A13436360A9E60D20C6F201
:103FE0004060FFF7B5FA0001002800D14BE70D2033
:103FF000C6F24060FFF7ACFA0001102800D19CE047
:104000000D20C6F24060FFF7A3FA0001202800D07F
:1040100039E7CDE740F2002230210D20C4F2000242
:104020009369C6F240608B4310390B439361FFF7ED
:104030008FFA0001002800D0C1E641F60035C0F239
:10404000B70573E66268B5FBF3F5520A52020A43FC
:1040500062606DE60620CAF2C060FFF779FA41F2AD
:1040600000030003984295D00620CAF2C060FFF713
:104070006FFA42F200030003984200D04BE685E756
:1040800040F20022C021C4F2000293698B43403900
:104090000B4393614CE640F20022C0210E20C4F293
:1040A00000029369C6F260608B4340390B43936111
:1040B000FFF74EFA80010028BFD056E70F20C6F266
:1040C000A060FFF745FA8002002800D1DBE60F2050
:1040D000C6F2A060FFF73CFA40F20043800298422B
:1040E0002BD00F20C6F2A060FFF732FA40F6000393
:1040F0008002984200D0C6E65AE7C046FFCFFFFFD5
:10410000FFF3FFFF0E20C6F26060FFF721FA800187
:10411000002800D1B7E60E20C6F26060FFF718FA5B
:104120008001402809D00E20C6F26060FFF710FA27
:104130008001802800D0A6E6FAE5FFF7DDF905004A
:10414000F6E593690E494D460B4040F600010B43DE
:104150009361EDE540F20022C4F200029369084940
:104160000F200B4040F600010B439361C6F2A060A4
:10417000FFF7EEF98002002800D15EE7D3E6C046E3
:10418000FFF3FFFF01220368934303607047C046BB
:1041900040F20012036913430361704709228368E8
:1041A000934383607047C04680220121D205936803
:1041B0000B4393607047C04601230202120A9340EA
:1041C0000822C4F200029446000E604402681A43BA
:1041D000026002689A4302607047C0460023036091
:1041E00043617047002343607047C04643680B43F8
:1041F00043607047F0B5C64600B544F6947388B086
:104200006A46C0F2000304000F0043CB43C243CB15
:1042100043C203CB03C20023C5F207036D469C4291
:104220001CD02ED843F20003C4F207039C4200D1F5
:10423000DAE000D9B8E041F20003C4F207039C427F
:1042400000D18DE042F20003C4F207039C4200D18A
:1042500071E00023C4F207039C425CD143F6105086
:10426000C6F60070FFF774F9060043F61050C6F664
:104270000070FFF7DFF98046042E27D1FEF79CFD82
:1042800080E043F20003C5F207039C4200D1ABE09B
:1042900045D944F20003C5F207039C4200D191E0E6
:1042A00045F20003C5F207039C4234D143F6955012
:1042B000C7F6CC70FFF74CF9060043F69550C7F6E9
:1042C000CC70FFF7B7F98046042E59D000234FF683
:1042D0000F7223630333E360A368CFF6F0721340D9
:1042E000A360012E38D0B7B140F2010CB600AA5934
:1042F000E044B2FBF8F27B089B18B3FBF7F34FF6F0
:10430000FF71023B8B424AD9FB009B18B3FBF7F3CA
:104310001B09023B636208B080BCB846F0BD41F2A5
:104320000003C5F207039C421AD042F20003C5F213
:1043300007039C42EFD143F61240C6F68C70FFF79C
:1043400007F9060043F61240C6F68C70FFF772F9C3
:104350008046042EBAD191E7FFF7CEF86860C2E735
:1043600043F69150C6F64070FFF7F2F8060043F6A8
:104370009150C6F64070FFF75DF98046042EA5D136
:10438000FEF724FD00234FF60F72286123630333E9
:10439000E360A368CFF6F0721340A360A3E7C022E6
:1043A000920513436362B6E744F20003C4F20703C5
:1043B0009C4207D045F20003C4F207039C4200D19F
:1043C00074E7A8E743F61450C7F68C70FFF7C0F8FF
:1043D000060043F61450C7F68C70FFF72BF98046A1
:1043E000042E00D072E749E743F69340C6F6CC703E
:1043F000FFF7AEF8060043F69340C6F6CC70FFF721
:1044000019F98046042E00D060E7B9E770B50400C2
:104410000E001500002044F2000162B18023DB058C
:1044200001E0013B3BB1A2691142FAD12368335448
:1044300001308542F2D170BD70B50E0080210400BC
:1044400015000020090462B18023DB0501E0013B77
:104450003BB1A2690A42FAD1335C01302360854244
:10446000F2D170BD41F2680310B5C2F200031B68BF
:10447000984710BD41F2640310B5C2F200031B68F7
:10448000984710BD41F26C0310B5C2F200031B68DF
:10449000984710BD10B5FCF7F9F8FEF733F8002087
:1044A000FCF7EEFBFFF782F940F2E830FDF7D0F8B9
:1044B0000148FEF79BFB10BD880C002010B50024BE
:1044C000084B20001C60FCF7A1FB2000FCF77EFBE2
:1044D000FFF7D8F82000FCF7B1FB2000FCF7B0FA9A
:1044E00010BDC04610E000E0242373B50E4D0F4C04
:1044F000286843431B59DA6941F200131A4209D074
:104500006B46DE1D31000122FCF724FB31780848A0
:10451000FDF7B6F824232A685343E358DA69DA61D1
:104520009A699A6173BDC04670100020D85A000085
:10453000741000200E4B10B541F200020400186008
:104540000C490D48FDF78CF810B10120404210BD18
:10455000E1212000C902FCF795FA01000028F4D1FE
:104560000200064B2000FCF745FA431E9841EDE798
:1045700070100020A410002074100020E9440000F6
:10458000F8B505000C00170000263B0022002900AA
:104590000548FDF77AF8431C04D0241A2D18361864
:1045A000002CF2D13000F8BD7410002010B5034B80
:1045B0000A0001001868FCF7B7FA10BD701000205F
:1045C000044B054A00201A6041F2000298605A60CC
:1045D000D860704774100020A410002010B5064C5D
:1045E0002068FCF7CDFA0548FDF749F823680BB9B8
:1045F000FDF788FF002010BD70100020741000200F
:1046000037B50B4B05000193C478837824021C4313
:1046100041F2040364BAA4B29C4207D8042101A861
:10462000FFF7C4FF2800211DFFF7C0FF37BDC046BC
:104630003937283A40F2803307B501A80193FFF7D4
:10464000DFFF07BDF7B504000F000026FFF7B8FF36
:10465000FCF7E0FF6B4605003A000121D81DFFF78B
:104660008FFF18B36B46DB7936021E43FCF7D2FF8F
:10467000854201D87F193F1A114B9E42E8D10A2288
:1046800004212000FFF77CFF042812D141F204032B
:1046900065886DBAADB29D420DD80A222900201D51
:1046A000FFF76EFF854208D10020FEBD0120404289
:1046B000FBE70220FBE70320F9E70420F7E7C04609
:1046C0003A28373907B5044B00936B461871684692
:1046D000FFF796FF07BDC0468001000130B50024FA
:1046E00087B002AD102200212800FBF74FFE0C21FD
:1046F00001AA03A80194FCF727FD019B0C2B01D113
:1047000040F6004440F6804328002B806C80FFF781
:1047100077FF07B030BD10B50020FFF7D3FF64204E
:10472000FCF786FFFCF740FF10BD00007FB50500D9
:1047300041F2040000F05EFB040070B141F204029B
:104740000021FBF723FE2B78012B07D12E89696806
:104750003200201D00F070FB66807FBD022B0DD162
:10476000002603A903962A890091231D696805483C
:10477000FEF76AFA039B26806380EEE70C23238012
:10478000EBE7C046880C00201FB503780400012B1E
:104790000CD14068030513B12189FCF7F5FC210019
:1047A000228960680A31FCF7CFFD1FBD022BFCD1C6
:1047B00000230393030003A90289009141680A338F
:1047C0000148FEF761FAF0E7880C002030B50400DC
:1047D00085B0FFF7F5FE210068466D46FFF732FF12
:1047E00048B940F200432A889A4202D1FFF722FFDB
:1047F000012005B030BD0020FBE7000010B5FFF739
:10480000DFFE0121184C49422000FFF71BFF2088E2
:10481000618840BA80B249BA013889B20E28F0D80E
:1048200000F0A0FA191DEF08EFEFEF0EEFEFEF0B1E
:10483000EF111500FFF7FEFEE3E7FFF74FFFE0E79C
:10484000FFF769FFDDE70948FFF79EFFD9E7074853
:10485000FFF76CFFD5E7054800F04AF8D1E70348B9
:1048600000F06EF8CDE7C046A4200020A82000206C
:1048700040F2B412034B04491B68002028338B50CC
:104880007047C0460C0D0020A00E002040F2B4126C
:10489000034B04491B6800203C338B507047C046D3
:1048A0000C0D0020A00E002070B5050008001100BE
:1048B0001A00012D0DD1FDF79BFA040005280EDC2E
:1048C00000280CDB0238032809D800F055FA070A43
:1048D0000C0E0C241DB9FDF7ADFAEEE70124200003
:1048E00070BD0824FBE70324F9E70724F7E700007D
:1048F00070B5040003200D00814216DD0F4E40F21A
:10490000C01200213000FBF741FD2078211D3060EE
:104910006378A2781B0412021343E27813432A1F20
:10492000012807D0062804D00120FFF7CBFE002085
:1049300070BD0020FFF7B8FFF7E7C046A00E0020CB
:1049400040F2BC13054A10B5D258B53BFF3B0AB143
:10495000904703001800FFF7B5FE10BDA00E002021
:1049600010B5A0B0802200216846FBF70FFD0A4871
:10497000FEF73CF969460848FEF7A4F9040030B98F
:1049800069460648FEF7BAF8200020B010BD04487A
:10499000FEF7B4F80124F7E7880C0020A4520000C9
:1049A000A7520000F0B589B0FFF774FDBA48FEF7D2
:1049B000A5F8BA49BA48FEF7A1F8FEF7E3F80100F6
:1049C000B748FEF79BF8B748FEF798F8B648FEF7E9
:1049D00095F8B649B648FEF791F8FCF7E9FD0128CD
:1049E00067D1B448FEF78AF8B34B9A6AA023DB027A
:1049F0009A423ED0B148FEF781F816245920882506
:104A0000AF4AB04B013A58605C605D6012B15968C2
:104A10000029F7D01122AC4B1A60AC4A5A60002230
:104A2000DA6001321A611A69002AFCD19A680132EF
:104A300006D02222DA60213A1A611A69002AFCD1D2
:104A4000A022D2029A602122DA60203A1A611C69FF
:104A5000002CFCD1A0219E48C902FEF74FF842F27B
:104A60000F720794079B934225DD80230122DB050B
:104A70009A609848FEF742F8FFF772FF00BB96482D
:104A8000FEF73CF8012700219448FEF737F89448D8
:104A9000FEF734F80020FDF7E3FC0600012814D0EF
:104AA0009048FEF72BF86420FCF7C2FDFCF77CFD74
:104AB000FEE78D4896E7C046079B01330793D1E791
:104AC0008A48FEF71BF80027DDE78948FEF716F84D
:104AD000FDF75EFC8748FDF7EBFC01283CD839D197
:104AE0008549844C607A637822780390A07A02909A
:104AF000207A0190606800908048FDF7FFFF8048B1
:104B0000FDF7FCFF0020FDF7FFFB01282BD17D48BE
:104B1000FDF7F4FF0120FDF7B5FB050048BB7A481F
:104B2000FDF7ECFF7948FDF7E9FF00267848FDF72F
:104B3000E5FF0220FCF77CFD26B16068FFF746FE2A
:104B400000286AD06078FFF7F5FCFFF757FEFFF703
:104B500045FD62E06F49C4E76F48FDF7CFFF6F483E
:104B6000FDF7CCFFFEE7022801D16D48D0E76D4884
:104B7000CEE7052802D16C48FDF7C0FF237AE3B1E8
:104B800002232A009A430592012A16D16748FDF7AD
:104B9000B5FF00210598FDF74DFB0020FDF772FBE6
:104BA000050001006248FDF7A9FF681E04281CD813
:104BB00000F0E2F86C282A202000A37A3BB1022DF5
:104BC00005D15C48FDF79AFF01210800E3E7637A0D
:104BD0001BB1042D01D15848F4E76B1C012B9ED961
:104BE00029005648FDF78AFFD7E75548FDF786FFAD
:104BF000544898E75448FDF781FF01210020FDF754
:104C000019FB03E05148F6E7002FF6D101210020FF
:104C1000FDF7FAFA2378022B88D00220FCF708FD72
:104C2000FDF73CFC010004004948FDF767FF022046
:104C3000FCF7FEFC0125FFF741FC85F31088FBF72C
:104C40000DFD802203005205134059424B410020C4
:104C50005B4240491B0F1B075B1819681A4A29431E
:104C600019603D4B3D491B6808602E30D060DB0861
:104C700054601561106910B1581E5BB9086080223C
:104C80000223D20591680B439360FEE73448FDF799
:104C900035FFBFE70300EDE7C1520000E952000015
:104CA000FE5200000B530000C55200002F530000BD
:104CB000485300005453000000F0024089530000A4
:104CC000001BB700FC00004000C0004000082100AD
:104CD0009B530000B4530000C9530000F45300007C
:104CE000075400001D5400006E530000DE53000006
:104CF00045540000AC300020B95200004954000077
:104D000088540000D9540000FB5400000A550000EC
:104D100052560000DA4F0000A4540000BD540000B9
:104D2000E7540000F2540000235500003155000004
:104D3000A855000051550000715500009155000024
:104D4000C6550000D8550000F45500001756000065
:104D50006556000000C00050840C00206010002048
:104D60003C56000002B47146490849000956490002
:104D70008E4402BC7047C04602B4714649084900DF
:104D8000095C49008E4402BC7047C04610B5034B15
:104D90000A000100186800F003F810BD000C0020A4
:104DA0000B0C70B5150CEBB965B989B294B24C43D4
:104DB0002100FBF787FB0500D0B122000021FBF7A3
:104DC000E5FA15E02B1C0C1C89B292B24A439BB247
:104DD000A1B25943140C0C19230C33B9240492B218
:104DE0001443E5E70DB9141CEEE70C23002503601E
:104DF000280070BD10B5034B01001868FBF762FB7B
:104E000010BDC046000C002010B5034B010018680F
:104E1000FBF7EEFA10BDC046000C002030B50024B0
:104E20000139A24201D1002005E0035D01340D5D8E
:104E3000AB42F6D0581B30BD002310B59A4200D1CA
:104E400010BDCC5CC4540133F8E70000FEE7C04657
:104E5000100000001100000012000000130000000C
:104E60001400000015000000480000005800000079
:104E700043500000465000005A500000735000009C
:104E800090500000A250000000000000A2EF022B92
:104E90005B41CC86621C70A704AAA55EEA76839368
:104EA00070C03DA6A1BF8A90C62C289100000000CA
:104EB00000000000000000000000000000000000F2
:104EC000000000000000000000000000001BB70010
:104ED0000080000000000000007D000000000000D5
:104EE000006CDC0200093D00001BB7000000000060
:104EF00004000000080000000C000000000000009A
:104F00000400000008000000100000000400000081
:104F10000600000006000000070000000800000076
:104F2000080000000800000000010000000200006E
:104F30000003000000040000040006000600070053
:104F400008000800080009000C000D001000110006
:104F5000120000000000000020003000400060004F
:104F6000800000000400060006000700080008009A
:104F700008000000001BB7000080000000000000D7
:104F80000000000000093D00007D0000000000005E
:104F9000001BB700001BB7000000000000800000ED
:104FA000001BB7000000000000000000000000002F
:104FB000000000008D4D0000094E000004000000BC
:104FC000020000000A0000000C00000020204861E0
:104FD00072644661756C74210A0A00723020203DAB
:104FE000203078256C780A00723120203D203078FE
:104FF000256C780A00723220203D203078256C78AC
:105000000A00723320203D203078256C780A007227
:105010003132203D203078256C780A006C722020D7
:105020003D203078256C780A00706320203D2030C8
:1050300078256C780A00707372203D203078256CDA
:10504000780A004F4B004C656E677468206F75746A
:10505000206F662072616E67650070616765206E03
:10506000756D626572206F7574206F6620726E6157
:10507000676500646966666572656E742066726F46
:105080006D2073746F726564206C656E6774680060
:10509000496E707574206D7367206973204E554C8E
:1050A0004C00696E7075742070617373776F7264F1
:1050B000206973204E554C4C00696E7465726E61A8
:1050C0006C0065787465726E616C0042616E6B3065
:1050D00020424C203A2025732C20616464722830D1
:1050E000782530386C58292C206D617873697A6581
:1050F0002830782530386C58290A0042616E6B30B0
:10510000205320203A2025732C20686472283078A0
:105110002530386C58292C20616464722830782539
:1051200030386C58292C206D617873697A65283085
:10513000782530386C58290A0042616E6B30204E59
:1051400053203A2025732C2068647228307825304B
:10515000386C58292C2061646472283078253038E6
:105160006C58292C206D617873697A652830782510
:1051700030386C58290A0042616E6B30203A206E3C
:105180006F6E650A0042616E6B3120424C203A20FE
:1051900025732C20616464722830782530386C586F
:1051A000292C206D617873697A652830782530382C
:1051B0006C58290A0042616E6B31205320203A203E
:1051C00025732C206864722830782530386C582973
:1051D0002C20616464722830782530386C58292C72
:1051E000206D617873697A652830782530386C587D
:1051F000290A0042616E6B31204E53203A202573FC
:105200002C206864722830782530386C58292C207E
:10521000616464722830782530386C58292C206DF0
:10522000617873697A652830782530386C58290A96
:105230000042616E6B31203A206E6F6E650A007617
:10524000322E302E302832303235313232363A3149
:10525000353431323329006E6F6E65006D74642011
:10526000696E666F282564293A20252E3136732C05
:105270002073697A65203D203078256C78202825B8
:105280006C644D6942292C20657261736573697A7B
:1052900065203D203078256C7828256C754B694257
:1052A000290D0A002573006D746420696E666F20F5
:1052B0003A206E6F6E650A0D0064656661756C74E8
:1052C000000D0A0D0A2D2D2D2D2D2D2D2D2D2D2DC1
:1052D0002D2D2D2D2D2D2D2D2D2D2D2D2D2D2D2DFE
:1052E0002D2D2D2D2D2D0D0A004178696F20426F37
:1052F0006F74204D616E61676572205633007C20AB
:1053000020252D323873207C0D0A007C2020536527
:10531000637572697479506C6174666F726D20493F
:105320006E632E20202020202020207C0D0A0042A9
:105330004F4152445F47454E455249435F4D3233DA
:1053400035345F4B50514300426F617264203A2004
:1053500025730A00426F6F742046726F6D20524FA2
:105360004D203A20656E61626C65640A0D00426FE3
:105370006F742046726F6D20524F4D203A20646941
:105380007361626C65640A0D004E5342412069737B
:10539000206E6F74207365740D0A004E53424120D5
:1053A00069732073657420746F203078256C780DD4
:1053B0000A0D0A0042616E6B206D6F6465203A2011
:1053C00073696E676C650A0D00526F6C6C2D6261BB
:1053D000636B203A20656E61626C65640A00526FEF
:1053E0006C6C2D6261636B203A2064697361626C3E
:1053F00065640A0043757272656E742062616E6B3B
:10540000203A2025640A00436865636B2062616E60
:105410006B2061646472657373203A200066616971
:105420006C6564200A57726F6E672062616E6B2034
:10543000616464726573732E2052657365742063B2
:105440006869700A006F6B0A0041626D436F6E6697
:105450006967203A202573206D6F646528256429CB
:105460002C2075617274282564292C2077746F288C
:10547000256C64292C207365637572652825642C5E
:1054800025642C2564290A004178696F426F6F7486
:105490004C6F61646572204475706C6963617465FA
:1054A000203A200041626D436F6E666967203A20A2
:1054B0006E6F74206C6F61646564200A00437269CA
:1054C000746963616C206572726F72206F636375BB
:1054D000726564202E2E2E2E00616C7265616479D7
:1054E00020646F6E650A00636F6D706C657465642F
:1054F0000A006E6F7468696E670A0053656375729F
:1055000065203A206E6F6E650A00506C65617365A8
:1055100020646F776E6C6F6164205365637572658C
:105520002E0A00536563757265203A20616C6C0A1F
:1055300000536563757265206261636B7570203A14
:105540002062616E6B30202D3E2062616E6B310AED
:1055500000536563757265207265746F7265203AD9
:105560002062616E6B31202D3E2062616E6B300ACD
:105570000053656375726520757064617465203AC7
:105580002062616E6B31202D3E2062616E6B300AAD
:1055900000536563757265203A20626F6F746162B3
:1055A0006C65282564290A004E6F6E7365637572F9
:1055B0006520726567696F6E2073746174757320FE
:1055C0003A2025640A004E6F6E736563757265201C
:1055D0003A206E6F6E650A00506C656173652064D9
:1055E0006F776E6C6F6164204E6F6E53656375727A
:1055F000652E0A004E6F6E73656375726520757057
:1056000064617465203A2062616E6B31202D3E200A
:1056100062616E6B300A004E6F6E73656375726502
:1056200020726F6C6C6261636B203A2062616E6BFA
:1056300031202D3E2062616E6B300A004E6F6E731A
:105640006563757265203A20626F6F7461626C6584
:105650000A00557064617465207468726561642025
:105660002E2E2E0A004C6F6164204178696F2D53F5
:105670006563757265203A2030782530386C780A79
:1056800000000000000005400200805E00020000F3
:10569000000000000200000420000000000105409E
:1056A0000300C05E002000000000000003000004B2
:1056B00021000000000000000000000000000000C9
:1056C00000000000000000000000000000000000DA
:1056D00000000000000000000000000000000000CA
:1056E00000000000000000000000000000000000BA
:1056F00000000000000000000000000000000000AA
:105700000000000000000000000000000000000099
:105710000000000000000000000000000000000089
:105720000000000000000000000000000000064033
:105730000C00206608000000000000000C000004BF
:105740001600000000000000000000000000000043
:1057500000000000000000000000000000100640F3
:105760000D00406620000000000000000D00000455
:105770001700000000000000000000000000000012
:105780000000000000000000000000000000000019
:105790000000000000000000000000000000000009
:1057A00000000000000000000000000000000000F9
:1057B00000000000000000000000000000000000E9
:1057C00000000000000000000000000000000000D9
:1057D0000000000000000740103D006F00000100C5
:1057E0000000000010000004240000000000000081
:1057F00000000000000000000000000000000000A9
:105800000000000000000000000000000000000098
:105810000000000000000000000000000000000088
:105820000000000000000000000000000000000078
:105830000000000000000000000000000000000068
:105840000000000000000000000000000000000058
:105850000000000000000000000000000000000048
:105860000000000000000000000000000000000038
:1058700000000000000000000000000000000640E2
:105880000240004000030000000000000000000093
:10589000000000000000064003400040003000000F
:1058A00000000000000000000000000000000640B2
:1058B0000140004030000000000000000000000037
:1058C000000000000000064000400040030000000F
:1058D0000000000000000000000000000010064072
:1058E00003400040004000000000000000000000F5
:1058F00000000000001006400240004000040000CC
:105900000000000000000000000000000010064041
:1059100001400040400000000000000000000000C6
:10592000000000000010064000400040040000009D
:105930000000000000000000000000000000074020
:105940000740004000000070000000000000000060
:105950000000000000000740064000400000000773
:10596000000000000000000000000000511A0000CC
:105970009D1B000013170000CF1900006E32357117
:1059800031323861313300000000000020BA1800C5
:1059900000000003000001000001000103000100FD
:1059A000500C002064656661756C74000000000096
:1059B00000000000000000000000000000000100E6
:1059C0001000000103000900500C0020FF05030433
:1059D00003000000000000000000000000000000C4
:1059E00000A001006C0C00200000000000F004008A
:1059F00000000000001000006C0C002000B001004E
:105A000000C0010000000000003003006C0C00200A
:105A100000000500001005000000000000F00C0070
:105A20006C0C0020000000000000000000000000DE
:105A300000A00100600C00200000000000F0040045
:105A40000000000000100000600C002000B0010009
:105A500000C001000000000000300300600C0020C6
:105A600000000500001005000000000000F00C0020
:105A7000600C002001000000010000000100000097
:105A800000000540020000000100000000000000CE
:105A900000000000000000000800000080841E00DC
:105AA000001006400000000000400040014000409F
:105AB000000000000000000002400040D05A00003A
:105AC00001000000010000000000000000000000D4
:105AD00003400040000000000000074000C2010039
:105AE00006400040074000400000000000000000A9
