:020000021000EC
:10C000007FE97FE91DF04ABD7FE97FE91DF03EBB76
:10C010007FE97FE91DF014BB7FE97FE902F00CB8EE
:10C020007FE97FE91DF01CBC7FE97FE91DF038BC8A
:10C030007FE97FE91DF048BD7FE97FE91DF06ABB1C
:10C0400000000000030000006C0F0020300C0020F6
:10C05000000000006C0F0020D40F00203C100020D6
:10C0600000000000000000000000000000000000D0
:10C0700000000000000000000000000000000000C0
:10C0800000000000000000000000000000000000B0
:10C090000000000000000000000000009F06057086
:10C0A00001043050030B022052D8C7FFF9F60100FB
:10C0B000CDF701000DF60100E10B0200C90B0200F3
:10C0C000AD0B0200000001000100010002000100B0
:10C0D0000300050008003A004200F60038018E0116
:10C0E000C602F700BD033B00F8030500FD03010095
:10C0F000FE030100FF03010000002000FFFFFFFF1F
:10C10000FF030000FF03000000002000FFFFFFFF0F
:10C1100000040000FF03000000002000FFFFFFFFFD
:10C1200001040000FF0300000000A000CDCCCCCC37
:10C1300003000000FB0302000000400709CB3D8D17
:10C1400008000000C60305000000C01E5408348526
:10C15000420000000A0307000000C0311ECFA9A45E
:10C1600038010000720208000000E01EC9F9A9842D
:10C17000C60200000903070000006007FCF2D88A2D
:10C18000BD030000C50305000000A000CDCCCCCC51
:10C19000F8030000FB03020000002000FFFFFFFF88
:10C1A000FC070000FF03000000002000FFFFFFFF6E
:10C1B000FD070000FF03000000002000FFFFFFFF5D
:10C1C000FE070000FF03000000007E017E01F60074
:10C1D00074024100B5020700BC020100BD0201006B
:10C1E000BE020100BF020100C0020100C102010045
:10C1F000C2020700C90241000A03F6000000C02F76
:10C20000E3698FAB00000000820208000000C01E3E
:10C21000540834857E0100000A030700000020084E
:10C22000FDC00FFC74020000BF0306000000E00028
:10C2300093244992B5020000F90302000000200097
:10C24000FFFFFFFFBB060000FF030000000020000F
:10C25000FFFFFFFFBC060000FF03000000002000FE
:10C26000FFFFFFFFBD060000FF03000000002000ED
:10C27000FFFFFFFFBE060000FF03000000002000DC
:10C28000FFFFFFFFBF060000FF03000000002000CB
:10C29000FFFFFFFFC0060000FF0300000000E000FA
:10C2A00093244992C2020000F90302000000200812
:10C2B000FDC00FFCC9020000BF0306000000C01E45
:10C2C000540834850A0300000A030700E81100201F
:10C2D000006CDC0230000000006CDC020C0F00205F
:10C2E00000BF03000000000000000000000000008C
:10C2F000000000000000000000000000000000003E
:10C30000000000000000000000000000000000002D
:10C31000000000000000000000000000000000001D
:10C32000000000000000000000000000000000000D
:10C33000086E040000000000000000000000000083
:10C3400000000000000000000000000000000000ED
:10C3500000000000000000000000000000000000DD
:10C360009C6D04004C6D0400C1D2010091D201000B
:10D00000200C00200DDA010057DA01003BDF01009F
:10D010000000000000000000000000000000000010
:10D0200000000000000000000000000057DA0100CE
:10D03000000000000000000057DA010057DA01008C
:10D0400057DA010057DA010057DA010057DA010018
:10D0500057DA010057DA010057DA0100A503020090
:10D0600057DA010057DA010057DA010057DA0100F8
:10D0700057DA010057DA010057DA010057DA0100E8
:10D0800057DA010057DA010057DA010057DA0100D8
:10D0900057DA010057DA010057DA010057DA0100C8
:10D0A00057DA010057DA010057DA010057DA0100B8
:10D0B00057DA010057DA010057DA010057DA0100A8
:10D0C00057DA010057DA010057DA010057DA010098
:10D0D00057DA010057DA010057DA010057DA010088
:10D0E00057DA010057DA010057DA010057DA010078
:10D0F00057DA010057DA010057DA010057DA010068
:10D1000057DA010057DA010057DA010057DA010057
:10D1100057DA010057DA010057DA010057DA010047
:10D1200057DA010057DA010057DA010057DA010037
:10D1300057DA010057DA010057DA010057DA010027
:10D1400057DA010057DA010057DA010057DA010017
:10D1500057DA010057DA010057DA010057DA010007
:10D1600057DA010057DA010057DA010057DA0100F7
:10D1700057DA010057DA010057DA010057DA0100E7
:10D1800057DA010057DA010057DA010057DA0100D7
:10D1900057DA010057DA010057DA010057DA0100C7
:10D1A00057DA010057DA010057DA010057DA0100B7
:10D1B00057DA010057DA010057DA010057DA0100A7
:10D1C00057DA010057DA010057DA010057DA010097
:10D1D00057DA010057DA010057DA010057DA010087
:10D1E00057DA010057DA010057DA010057DA010077
:10D1F00057DA010057DA010057DA010057DA010067
:10D2000057DA010057DA010057DA010057DA010056
:10D21000F8B5C046F8BC08BC9E467047F8B5C04695
:0CD22000F8BC08BC9E46704700000000EF
:10D2400040F6507040F65073C2F20000C2F2000384
:10D2500010B5834205D040F20003C0F2000303B1D1
:10D26000984710BD40F6507040F65073C2F200006F
:10D27000C2F200031B1A9A10D90F8918491010B571
:10D2800029B140F20003C0F2000303B1984710BD7A
:10D2900010B540F65074C2F20004237873B9FFF75A
:10D2A000CFFF40F20003C0F200032BB14DF2282063
:10D2B000C0F2010000E000BF0123237010BDC04692
:10D2C00040F20003C0F2000310B54BB140F65471B8
:10D2D0004DF22820C2F20001C0F2010000E000BFC0
:10D2E000FFF7C0FF10BDC046402292029A1A924634
:10D2F0007047C046174B002B00D1134B9D46FFF7DC
:10D30000F3FF00218B460F461348144A121A00F00F
:10D310004BF90E4B002B00D098470D4B002B00D043
:10D3200098470020002104000D000D48002802D07D
:10D330000C4800E000BF00F085F9200029001CF037
:10D340001BF900F011F8C0460000080000000000C2
:10D3500000000000200C0020500F0020E4110020ED
:10D360000000000000000000064B10B5040013B1DF
:10D37000002100E000BF044B1B6803B19847200068
:10D380001EF0DCF900000000A4100020002310B5FE
:10D39000040003604360836081814366C28103614E
:10D3A00043618361190008225C3000F0FDF80B4BEB
:10D3B000246263620A4BA3620A4BE3620A4B236353
:10D3C0000A4B9C4205D00A4B9C4202D0094B9C421E
:10D3D00003D12000583000F05DF910BD11D50100D7
:10D3E00039D5010071D501009DD501006C0F0020D9
:10D3F000D40F00203C10002010B5034A0349044814
:10D4000000F06AF810BDC046200C00209DD9010034
:10D41000300C002041680B4B10B50400994201D03C
:10D4200000F0BCFAA168084B994202D0200000F03D
:10D43000B5FAE168054B994202D0200000F0AEFA3F
:10D4400010BDC0466C0F0020D40F00203C100020FF
:10D4500010B5094B094A04211A6009480022FFF758
:10D4600095FF012209210748FFF790FF02221221B0
:10D470000548FFF78BFF10BDA4100020F9D3010071
:10D480006C0F0020D40F00203C10002010B5024883
:10D4900000F001F910BDC046AD10002010B50248E3
:10D4A00000F0FAF810BDC046AD10002010B5040021
:10D4B000FFF7ECFF236A13B1FFF7F0FF10BD044B39
:10D4C0002362044B1B68002BF6D1FFF7C1FFF3E783
:10D4D00015D40100A4100020F7B514000026009018
:10D4E0000191A5686768013F04D52468002CF8D134
:10D4F0003000FEBDAB89012B08D90E22AB5E013393
:10D5000004D029000098019B984706436835EAE754
:10D5100070B50C000E25495F00F070F8002803DBA1
:10D52000636D1B18636570BDA389024A1340A38114
:10D53000F9E7C046FFEFFFFFF8B51F008B89050034
:10D540000C001600DB0505D50E23C95E0022022360
:10D5500000F042F8A389054A28001340A381320055
:10D560000E23E15E3B0000F05BF8F8BDFFEFFFFF2C
:10D5700070B50C000E25495F00F02EF80C22A35E5A
:10D58000421C03D1044A1340A38170BD41F2000242
:10D590001343A3816065F8E7FFEFFFFF10B50E238B
:10D5A000C95E00F009F810BD03008218934200D153
:10D5B000704719700133F9E7002370B5054D040079
:10D5C00008002B6019F07EFA431C02D12B6803B1CE
:10D5D000236070BDA810002070B504000800110081
:10D5E0001A000023044D2B6019F064FA431C02D189
:10D5F0002B6803B1236070BDA810002070B5040033
:10D60000080011001A000023044D2B6019F050FA95
:10D61000431C02D12B6803B1236070BDA810002009
:10D6200070B50400080011001A000023044D2B609F
:10D6300019F038FA431C02D12B6803B1236070BD86
:10D64000A810002070B500250E4C0F4BE41AA41052
:10D65000A54209D10025FFF7DBFD0C4C0C4BE41A69
:10D66000A410A54207D170BD074AAB009B181B68E8
:10D6700098470135ECE7064AAB009B181B689847B2
:10D680000135EEE7480F0020480F00204C0F002026
:10D69000480F0020704770477047000070B50500C4
:10D6A0000C0079B1043C2368002B00DAE418280050
:10D6B00000F0DEF81C4A13682BB963601460280080
:10D6C00000F0DEF870BDA34208D9206821188B4213
:10D6D000F3D119685B6809182160EEE71A005B68EE
:10D6E0000BB1A342FAD911685018A0420BD120689F
:10D6F0000918501811608342E1D118685B6841181D
:10D7000011605360DBE7A04202D90C232B60D6E7FF
:10D71000206821188B4203D119685B6809182160C1
:10D7200063605460CBE7C046B410002070B50F4E64
:10D730000D003168040011B900F058F9306029007B
:10D74000200000F053F9431C03D101256D4228004D
:10D7500070BD0323C51C9D43A842F8D0291A2000A0
:10D7600000F044F90130F2D1EFE7C046B0100020DC
:10D77000F7B50322CB1C9343083305001F000C2B85
:10D7800034D20C27B94233D8384E280000F070F854
:10D7900033681C00002C2FD139002800FFF7C6FF8A
:10D7A0000400431C5FD134680094009B002B4AD1D5
:10D7B000002C52D023682800E3180099019300F050
:10D7C00015F9019B834248D123682800FF1A3900CC
:10D7D000FFF7ACFF013040D02368DB1923603368CA
:10D7E0005A68002A33D1009B336019E0002BC9DA54
:10D7F0000C232B600020FEBD2168C91B20D40B29FF
:10D800000AD9E2192760A34204D13260636811602B
:10D81000536005E05A60F9E76268A3420ED13260B6
:10D82000280000F02DF8200007220B30231D904324
:10D83000C21A9842DFD01B1AA350DCE75A60EFE708
:10D8400023006468A6E7009C63680093ADE71A00B4
:10D850005B68A342FBD10023DAE70C2328002B608E
:10D8600000F00EF8C6E70760DAE7C046B410002003
:10D8700010B50248FFF70FFF10BDC046AC100020E6
:10D8800010B50248FFF708FF10BDC046AC100020DD
:10D89000F7B50C228B5E05000C001A0757D44A68B6
:10D8A000002A02DC0A6C002A4CDDE76A002F49D00E
:10D8B000002241F200012E682A601A000A400B4241
:10D8C00031D0626DA3895B0705D56368D21A636B9B
:10D8D0000BB1236CD21A00232800E76A216AB847EB
:10D8E0000C23E25E431C06D129681D292CD82A4B43
:10D8F000CB40DB0728D50023636023692360D20473
:10D9000004D5431C01D12B6803B96065616B2E609F
:10D91000C1B123004433994202D02800FFF7BEFE74
:10D92000002363630EE001232800216AB847020048
:10D93000431CC7D12B68002BC4D01D2B01D0162B44
:10D940001DD12E60002021E0402313431BE00E690F
:10D95000002EF7D00F680E60BA1B019200229B07C1
:10D9600000D14A69A260019B002BEBDDA36A320063
:10D970001F002800019B216AB847002807DC4023CC
:10D98000A28913431BB20120A3814042FEBD019B2B
:10D9900036181B1A0193E6E7010040200B6970B5A9
:10D9A00005000C0013B90025280070BD18B1036AEA
:10D9B0000BB9FFF77BFD0C22A35E002BF3D0626E48
:10D9C000D20704D49B0502D4A06DFFF764FE2800A3
:10D9D0002100FFF75DFF636E0500DB07E4D4A38938
:10D9E0009B05E1D4A06DFFF757FEDDE7002370B57E
:10D9F000054D040008002B6019F038F8431C02D1D3
:10DA00002B6803B1236070BDA810002019F05EFBE5
:10DA10000649074A074B9B1A03DD043BC858D05000
:10DA2000FBDC054880F30A88FFF764FC40C0010076
:10DA3000200C0020500F0020200400207046EFF33F
:10DA40000881EFF30A839942FED0EFF30982064B77
:10DA500098470047FEE7FEE7ABBE044B7446984785
:10DA60002047C0467046F047C5F90100696A0300C7
:10DA700070B5040008001900049B90B189B141F20F
:10DA80000155AC4265D01AD841F20135AC4255D0AF
:10DA90000AD841F20115AC4228D00135FF35AC421D
:10DAA0002BD00120404227E041F20145AC42F8D1A1
:10DAB000202AF6D1402BF4D118F0AAFD1CE048F240
:10DAC0000125AC422FD00135FF35AC4220D048F2C1
:10DAD0000115AC42E5D140F28044A242E1D140F6CA
:10DAE00021129342DDD107F053FC05E0202AD8D162
:10DAF000302BD6D109F0E4F970BD40F2E034A242F7
:10DB0000CFD140F280529342CBD10CF07CFCF3E7B2
:10DB100040F22034A242C4D140F260629342C0D1AC
:10DB20000FF066FBE8E740F2A024A242B9D140F230
:10DB300040329342B5D106F041FFDDE740F2205478
:10DB4000A242AED140F600229342AAD10FF0D1FEFC
:10DB5000D2E740F28134A242A3D140F20152934273
:10DB60009FD111F077FCC7E7F0B50C0085B0050038
:10DB700016000B981A000C990A9B7CB172B168B11F
:10DB800061B141F20137BD4232D00AD841F20117EA
:10DB9000BD4215D00137FF37BD421DD001204042A4
:10DBA00018E041F20147BD42F8D1402EF6D144F2CF
:10DBB000BF250E68AE42F1D9009418F02DFD09E0A2
:10DBC000302EEBD141F2FF650E68AE42E6D90094EB
:10DBD00009F07AF905B0F0BD40F28055AE42DDD1D2
:10DBE0000E684135AE42D9D900940CF010FCF1E733
:10DBF00040F60025AE42D1D10E688D3DAE42CDD962
:10DC000002940024019400940FF077FEE2E7F0B54F
:10DC10000C0085B00500160018000A990B9A0C9BA1
:10DC200074B168B162B141F20137BD4230D00AD857
:10DC300041F20117BD4214D00137FF37BD421BD05E
:10DC40000120404216E041F20147BD42F8D1202EAA
:10DC5000F6D144F2C025AB42F2D1009418F0E2FCB8
:10DC600008E0202EECD141F20075AB42E8D10094DF
:10DC700009F030F905B0F0BD40F2E035AE42DFD139
:10DC8000E335FF35AB42DBD100940CF0C6FBF1E786
:10DC900040F22055AE42D3D140F67415AB42CFD1FD
:10DCA00002940024019400940FF032FEE2E7F0B5F4
:10DCB0000C0085B0050016000B981A000C990A9B01
:10DCC0007CB172B168B161B141F20137BD423BD064
:10DCD0000AD841F20117BD421CD00137FF37BD42BF
:10DCE00025D00120404220E041F20147BD423BD017
:10DCF0000137FF37BD42F4D140F20155AE42F0D1B9
:10DD000040F2B2250E685D19AE42EAD3009411F0DC
:10DD1000A5FB0AE0302EE4D141F200750E685D19D2
:10DD2000AE42DED3009409F0E1F805B0F0BD40F258
:10DD30008055AE42D5D142350E685D19AE42D0D382
:10DD400000940CF076FBF0E740F60025AE42C8D117
:10DD50008C3D0E685D19AE42C3D302940024019439
:10DD600000940FF0E7FDE0E7402EBAD144F2C02561
:10DD70000E685D19AE42B4D3009418F05FFCD4E78E
:10DD8000F0B50C0085B0050016000B981A000C9930
:10DD90000A9B7CB170B16AB161B141F20137BD42F9
:10DDA0002AD00AD841F20117BD4216D00137FF37F9
:10DDB000BD4219D00120404214E041F20147BD426A
:10DDC00025D00137FF37BD42F4D140F28135AE4254
:10DDD000F0D1009411F048FB04E0202EEAD1009429
:10DDE00009F08AF805B0F0BD40F2E035AE42E1D16D
:10DDF00000940CF024FBF5E740F22055AE42D9D157
:10DE000002940024019400940FF09FFDEAE7202E75
:10DE1000D0D1009418F018FCE4E7F7B50C00060028
:10DE2000150018000899099A0A9B74B168B162B18B
:10DE300059B148F20127BE4228D00137FF37BE4210
:10DE400006D048F20117BE4211D0012040420DE039
:10DE500040F22036B542F8D140F2FF250E68AE42BE
:10DE6000F3D9202BF1D100940FF0C6F9FEBD40F29A
:10DE70008046B542E9D140F27F450E68AE42E4D912
:10DE8000202BE2D1009407F08CFAEFE740F2A026B5
:10DE9000B542DAD140F29F250E68AE42D5D9202B8B
:10DEA000D3D1009406F08EFDE0E7F7B50C00050035
:10DEB000160009981A000A99089B74B16AB160B1FA
:10DEC00059B148F20127BD4229D00137FF37BD4281
:10DED00006D048F20117BD4211D0012040420DE0AA
:10DEE00040F26065AE42F8D140F20035AB42F4D169
:10DEF0000D681F2DF1D900940FF094F9FEBD40F686
:10DF00002115AE42E9D140F28045AB42E5D10B6824
:10DF10001F2BE2D92B00009407F059FAEEE740F2EC
:10DF20004035AE42D9D1A03DAB42D6D10D681F2DB0
:10DF3000D3D9009406F05CFDE0E77046EFF308816A
:10DF4000EFF3098201F03EFD024B034A1A605A606A
:10DF50007047C04620040020FEFEFEFE70B559202A
:10DF600016248825224A234B013A58605C605D6084
:10DF700012B159680029F7D0032019F081FB032062
:10DF800019F002FD1C4819F09DFC142019F088FBC3
:10DF9000152019F085FB162019F082FB182019F0C6
:10DFA0007FFB192019F07CFB1A2019F079FB1B204C
:10DFB00019F076FB1C2019F073FB1D2019F070FB83
:10DFC0000E4C1E2019F06CFB1F2019F069FB19F094
:10DFD0005BF840F20042200009491DF033F872B6A8
:10DFE000084B9C60BFF34F8F62B6FFF7ADFF70BD6B
:10DFF000001BB700FC00004000D8B805000000205E
:10E0000000D0010000ED00E0084A0949136810B58E
:10E010008B4202D152689A4206D0064803F058F962
:10E0200001235B429847FEE710BDC0462004002054
:10E03000FEFEFEFEF4B8030030B51D0085B0FFF70C
:10E04000E3FF2B68002B01D100F08AFD012B13D1D7
:10E050006A6C022A00D064E3A8686C6802F08EFD46
:10E06000200005B0010002000300844630BC02BC61
:10E07000864681F300880C47652B09D16A6C022A19
:10E0800000D05BE3A96868681BF0EAFB0400E7E7DF
:10E09000662B09D16A6C022A00D05DE3A968686822
:10E0A0001BF0FEFB0400DBE7672B07D16A6C002A3C
:10E0B00000D05FE31BF0C4FA0400D1E7682B09D15C
:10E0C0006A6C022A00D063E3A96868681BF0DEFA74
:10E0D0000400C5E7692B09D16A6C022A00D064E309
:10E0E000A96868681BF016FB0400B9E76A2B07D122
:10E0F0006A6C002A00D066E31BF0D0FC0400AFE796
:10E100006B2B07D16A6C002A00D06AE31BF0DCFCA1
:10E110000400A5E740F2E832934208D16A6C012A74
:10E1200000D06CE3686801F0C7FC040098E740F297
:10E13000E932934208D16A6C012A00D06BE3686827
:10E1400001F0DCFC04008BE740F2FE32934209D17F
:10E150006A6C012A00D06AE36868C0B201F0A2FCD0
:10E1600004007DE740F2EA32934207D16A6C002A4C
:10E1700000D06BE301F02AFD040071E740F2EB32BE
:10E18000934209D16A6C032A00D06EE3043507CDAF
:10E1900001F0F4FC040063E740F2F632934207D149
:10E1A0006A6C002A00D06EE302F03AF9040057E7E7
:10E1B00040F2F732934207D16A6C002A00D073E331
:10E1C00002F04EF904004BE740F2F332934208D1DB
:10E1D0006A6C012A00D076E3686801F0F5FE04005D
:10E1E0003EE740F2F432934207D16A6C002A00D035
:10E1F00077E301F0F9FE040032E740F2F532934292
:10E2000008D16A6C012A00D081E3686801F002FF3E
:10E21000040025E740F2D172934208D16A6C012ACA
:10E2200000D081E3686801F095FC040018E740F233
:10E23000D272934209D16A6C032A00D074E3043588
:10E2400007CD01F08CFC04000AE740F2D372934240
:10E2500009D16B6C012B01D000F085FC686801F0DE
:10E2600083FC0400FCE640F2D472934209D16B6C4B
:10E27000012B01D000F07AFC686801F07AFC040000
:10E28000EEE640F2EF32934208D16B6C002B01D0E6
:10E2900000F06FFC01F0F6FC0400E1E640F2EE3223
:10E2A000934209D16B6C012B01D000F065FC6868CA
:10E2B00001F090FC0400D3E640F2F03293420AD120
:10E2C0006B6C012B01D000F05AFC6868C0B201F001
:10E2D000D9FD0400C4E640F2F13293420BD16B6CDD
:10E2E000022B01D000F04EFCA9686868C9B201F0A9
:10E2F000D1FD0400B4E640F2F232934209D16B6CD6
:10E30000012B01D000F041FC686801F0FDFD040024
:10E31000A6E640F2F83293420AD16B6C032B01D08F
:10E3200000F036FC043507CD00F0BCFE040097E693
:10E3300040F24D42934209D16B6C012B01D000F0A9
:10E340002AFC686802F088FC040089E640F24E422C
:10E35000934209D16B6C012B01D000F01FFC68685F
:10E3600002F0A4FC04007BE640F2FB32934209D1A8
:10E370006B6C012B01D000F014FC686801F080FB8D
:10E3800004006DE640F2FC32934209D16B6C012B24
:10E3900001D000F009FC686801F078FB04005FE63A
:10E3A00040F2FD32934208D16B6C002B01D000F09B
:10E3B000FEFB01F071FB040052E640F2074293427B
:10E3C00008D16B6C002B01D000F0F4FB02F05CF87C
:10E3D000040045E640F20842934207D16B6C002BE3
:10E3E00000D08BE202F060F8040039E640F6B93262
:10E3F000934207D16B6C002B00D0DEE301F01AFED4
:10E4000004002DE640F6BA32934209D16B6C032B1F
:10E4100000D0D5E3043507CD01F011FE04001FE65E
:10E4200040F6BB32934207D16B6C002B00D0CAE39D
:10E4300001F00AFE040013E640F6BC32934207D115
:10E440006B6C002B00D0C1E301F003FE040007E673
:10E4500040F6C332934209D16B6C022B00D0B8E373
:10E46000A968686801F0FAFD0400F9E540F6C432D5
:10E47000934209D16B6C022B00D0ADE3A9686868A8
:10E4800001F0F6FD0400EBE540F6C532934208D1F9
:10E490006B6C012B00D0A2E3686801F0EEFD040074
:10E4A000DEE540F6C632934208D16B6C012B00D0FA
:10E4B00098E3686801F0E6FD0400D1E540F6C73254
:10E4C000934208D16B6C012B00D08EE3686801F099
:10E4D000DEFD0400C4E540F6C832934209D16B6CFE
:10E4E000032B00D084E3043507CD01F0D5FD0400F3
:10E4F000B6E540F6C932934207D16B6C002B00D0D1
:10E5000079E301F0D3FD0400AAE540F6CA32934254
:10E5100009D16B6C022B00D070E3A968686801F028
:10E52000CAFD04009CE540F6CB32934209D16B6CE6
:10E53000022B00D065E3A968686801F0C6FD0400FD
:10E540008EE540F6CC32934207D16B6C002B00D0A5
:10E550005AE301F0BFFD040082E540F6CD3293425C
:10E5600008D16B6C012B00D051E3686801F0B7FD56
:10E57000040075E540F6CE32934208D16B6C012B56
:10E5800000D047E3686801F0AFFD040068E540F69D
:10E59000CF32934208D16B6C012B00D03DE3686809
:10E5A00001F0A7FD04005BE540F6D032934209D1AB
:10E5B0006B6C042B00D033E304350FCD01F0A2FDCA
:10E5C00004004DE540F6A172934207D16B6C002B1D
:10E5D00000D028E318F00CFE040041E540F6A272DA
:10E5E000934207D16B6C002B00D01FE318F010FE94
:10E5F000040035E540F6A372934207D16B6C002B03
:10E6000000D016E318F00EFE040029E540F6A472CF
:10E61000934207D16B6C002B00D00DE318F00CFE79
:10E6200004001DE540F6A572934207D16B6C002BE8
:10E6300000D004E318F00AFE040011E540F6A672CB
:10E64000934207D16B6C002B00D0FBE218F008FE60
:10E65000040005E540F6A772934207D16B6C002BCE
:10E6600000D0F2E219F070FA0400F9E440F6A87262
:10E67000934208D16B6C012B00D0E9E2686819F075
:10E680008FFA0400ECE440F6A972934208D16B6C57
:10E69000012B00D0DFE2686819F0F4FA0400DFE42F
:10E6A00040F6D232934208D16B6C012B00D0D5E2F8
:10E6B000686801F059FD0400D2E440F6D332934279
:10E6C00008D16B6C012B00D0CBE2686801F051FDE2
:10E6D0000400C5E440F6D432934208D16B6C012BA0
:10E6E00000D0C1E2686801F04DFD0400B8E440F6D6
:10E6F000D532934208D16B6C012B00D0B7E2686829
:10E7000001F049FD0400ABE440F6D632934208D153
:10E710006B6C012B00D0ADE2686801F045FD040090
:10E720009EE440F6D732934208D16B6C012B00D0A7
:10E73000A3E2686801F041FD040091E440F6D8329C
:10E74000934209D16B6C022B00D099E2A9686868EA
:10E7500001F038FD040083E440F6D932934209D138
:10E760006B6C022B00D08EE2A968686801F034FD62
:10E77000040075E440F6DA32934209D16B6C022B47
:10E7800000D083E2A968686801F02BFD040067E40B
:10E7900040F6DB32934208D16B6C012B00D078E25B
:10E7A000686801F023FD04005AE440F6DC3293422D
:10E7B00009D16B6C022B00D06EE2A968686801F089
:10E7C0001AFD04004CE440F6DD32934209D16B6C33
:10E7D000022B00D063E2A968686801F00FFE040014
:10E7E0003EE440F6DE32934209D16B6C022B00D03E
:10E7F00058E2A968686801F004FE040030E440F6BD
:10E80000DF32934207D16B6C002B00D04DE201F058
:10E81000FFFD040024E440F2FF32934207D16B6C09
:10E82000002B00D044E201F0F0FC040018E440F2B8
:10E83000004293420AD16B6C042B00D03BE20435BA
:10E840000FCD01F0E7FC0400FFF70AFC40F20142A3
:10E8500093420AD16B6C042B00D02FE204350FCD0C
:10E8600001F0DDFC0400FFF7FBFB40F202429342A3
:10E8700009D16B6C012B00D023E2686801F0D4FC55
:10E880000400FFF7EDFB40F2034293420CD16B6CA6
:10E89000052B00D018E26B69043500930FCD01F011
:10E8A000C8FC0400FFF7DCFB40F2044293420AD1AB
:10E8B0006B6C022B00D00AE2A968686801F0C0FC0A
:10E8C0000400FFF7CDFB40F20542934209D16B6C87
:10E8D000012B00D0FEE1686801F0BAFC0400FFF7EC
:10E8E000BFFB40F20642934211D16B6C002B00D06B
:10E8F000F3E101F0B5FC0400FFF7B2FB012B00D0FF
:10E90000EEE1686801F0B6FC0400FFF7A9FB40F6F1
:10E91000AA72934208D16B6C002B00D0E3E101F0A6
:10E92000F7FB0400FFF79CFB40F6AB72934208D163
:10E930006B6C002B00D0D9E101F000FC0400FFF764
:10E940008FFB41F27372934209D16B6C012B00D0A3
:10E95000CFE1686801F0B6FC0400FFF781FB41F2EB
:10E9600074729342F1D0033A934209D16B6C012B3C
:10E9700000D0C1E1686801F083FC0400FFF770FB80
:10E9800041F27272934208D16B6C002B00D0B6E159
:10E9900001F07CFC0400FFF763FB41F275729342C7
:10E9A00008D16B6C002B00D0ACE101F0F5FC040049
:10E9B000FFF756FB41F27672934209D16B6C012B43
:10E9C00000D0A2E1686801F013FD0400FFF748FBE6
:10E9D00042F28D3293420ED16B6C052B00D097E141
:10E9E0006B6968680093083580B20ECDFFF740F878
:10E9F0000400FFF735FB42F29032934212D16B6C68
:10EA0000072B00D087E1EB6968680293AB69083592
:10EA10000193EB6880B200930ECDFFF7A5F80400D8
:10EA2000FFF71EFB42F29132934212D16B6C072B1F
:10EA300000D073E1EB6968680293AB690835019314
:10EA4000EB6880B200930ECDFFF7E1F80400FFF70A
:10EA500007FB42F28E32934212D16B6C072B00D02F
:10EA60005FE1EB6968680293AB6908350193EB6875
:10EA700080B200930ECDFFF71AF90400FFF7F0FA09
:10EA800042F28F32934212D16B6C072B00D04BE1D4
:10EA9000EB6968680293AB6908350193EB6880B253
:10EAA00000930ECDFFF76CF90400FFF7D9FA42F29C
:10EAB0009232934212D16B6C072B00D037E1EB6995
:10EAC00068680293AB6908350193EB6880B20093E4
:10EAD0000ECDFFF7A2F90400FFF7C2FA42F293321B
:10EAE000934212D16B6C072B00D023E1EB6968686D
:10EAF0000293AB6908350193EB6880B200930ECDA9
:10EB0000FFF7D3F90400FFF7ABFA42F2AD6293428C
:10EB100008D16B6C002B00D00FE11AF01FFE04002F
:10EB2000FFF79EFA42F2AE6293420AD16B6C022B5F
:10EB300000D005E1A96868681AF038FE0400FFF704
:10EB40008FFA42F2AF62934200D0FCE06B6C012B73
:10EB500000D0FBE068681AF057FE0400FFF780FA67
:10EB60007C4CFFF77DFA7B4CFFF77AFA794CFFF784
:10EB700077FA784CFFF774FA764CFFF771FA754C18
:10EB8000FFF76EFA734CFFF76BFA724CFFF768FAF7
:10EB9000704CFFF765FA6F4CFFF762FA6D4CFFF7A8
:10EBA0005FFA6C4CFFF75CFA6A4CFFF759FA694C54
:10EBB000FFF756FA674CFFF753FA664CFFF750FA27
:10EBC000644CFFF74DFA634CFFF74AFA614CFFF7CC
:10EBD00047FA604CFFF744FA5E4CFFF741FA5D4C90
:10EBE000FFF73EFA5B4CFFF73BFA5A4CFFF738FA57
:10EBF000584CFFF735FA574CFFF732FA554CFFF7F0
:10EC00002FFA544CFFF72CFA524CFFF729FA514CCB
:10EC1000FFF726FA4F4CFFF723FA4E4CFFF720FA86
:10EC20004C4CFFF71DFA4B4CFFF71AFA494CFFF713
:10EC300017FA484CFFF714FA464CFFF711FA454C07
:10EC4000FFF70EFA434CFFF70BFA424CFFF708FAB6
:10EC5000404CFFF705FA3F4CFFF702FA3D4CFFF737
:10EC6000FFF93C4CFFF7FCF93A4CFFF7F9F9394C46
:10EC7000FFF7F6F9374CFFF7F3F9364CFFF7F0F9E9
:10EC8000344CFFF7EDF9334CFFF7EAF9314CFFF75D
:10EC9000E7F9304CFFF7E4F92E4CFFF7E1F92D4C82
:10ECA000FFF7DEF92B4CFFF7DBF92A4CFFF7D8F919
:10ECB000284CFFF7D5F9274CFFF7D2F9254CFFF781
:10ECC000CFF9244CFFF7CCF9224CFFF7C9F9214CBE
:10ECD000FFF7C6F91F4CFFF7C3F91E4CFFF7C0F949
:10ECE0001C4CFFF7BDF91B4CFFF7BAF9194CFFF7A5
:10ECF000B7F9184CFFF7B4F9164CFFF7B1F9154CFA
:10ED0000FFF7AEF9134CFFF7ABF9124CFFF7A8F978
:10ED1000104CFFF7A5F90F4CFFF7A2F90D4CFFF7C8
:10ED20009FF90C4CFFF79CF90A4CFFF799F9094C35
:10ED3000FFF796F9074CFFF793F9064CFFF790F9A8
:10ED4000044CFFF78DF9034CFFF78AF9014CFFF7EC
:10ED500087F9C046F1D8FFFFF7B5002401259C4292
:10ED600002D119F0F5FAF7BDA9B1A700CF59076292
:10ED700047692F42FCD140F2001647693742FAD169
:10ED8000076B52B1BC466646A700D65147692F4271
:10ED9000FCD10134E3E70162EAE70197019FF5E75F
:10EDA000F7B5002401259C4202D119F0D1FAF7BD34
:10EDB000A9B16700CF5B076247692F42FCD140F2DF
:10EDC000001647693742FAD1076B52B1BC46664616
:10EDD0006700D65347692F42FCD10134E3E7016253
:10EDE000EAE70197019FF5E7F7B50024012540F216
:10EDF00000169C4202D119F0ABFAF7BD79B10F5D54
:10EE0000076247692F42FCD147693742FCD1076B43
:10EE10003AB1175547692F42FCD10134E9E7016245
:10EE2000EFE70197019FF5E7F7B5002401259C4224
:10EE300002D11AF085F8F7BDA9B1A700CF59076232
:10EE400047692F42FCD140F2001647693742FAD198
:10EE5000076B52B1BC466646A700D65147692F42A0
:10EE6000FCD10134E3E70162EAE70197019FF5E78E
:10EE7000F7B5002401259C4202D11AF061F8F7BDD4
:10EE8000A9B16700CF5B076247692F42FCD140F20E
:10EE9000001647693742FAD1076B52B1BC46664645
:10EEA0006700D65347692F42FCD10134E3E7016282
:10EEB000EAE70197019FF5E7F7B50024012540F245
:10EEC00000169C4202D11AF03BF8F7BD79B10F5DF4
:10EED000076247692F42FCD147693742FCD1076B73
:10EEE0003AB1175547692F42FCD10134E9E7016275
:10EEF000EFE70197019FF5E7F7B50191052802D9E2
:10EF000001204042FEBD204B1B688342F8DD2424D3
:10EF100044431E4B1E49E658300001F022FB050019
:10EF20000028EDD0C2688168406800F018FE68686B
:10EF300000F01AFE286900F00DFE144B154AE41883
:10EF4000A5683000290001F0FDFA07270F21020013
:10EF5000A8092940384000F011FEE5680E4A290052
:10EF6000300001F0EFFA0F210200A80929403840D3
:10EF700000F004FE019B0199013300D1616830006B
:10EF80001AF09CF90020BDE7F86D0400546E0400EF
:10EF900068BD0300E8BE0300D0BE030010B505281D
:10EFA0000AD8074B1B68834206DD242343430548E8
:10EFB00018581AF08FFA10BD01204042FBE7C046F6
:10EFC000F86D0400546E04000F4B10B51B688342AB
:10EFD00002DA0120404210BD0C2343430B4A0C4986
:10EFE000985801F0BEFA04000028F2D0C268816887
:10EFF000406800F0B4FD606800F0B6FD206900F0E4
:10F00000A9FD0020E7E7C046EC6D0400FC6D04009C
:10F0100018BC0300F8B51F4B0D001B681600834297
:10F0200002DA01204042F8BD0C2343431A4A1B492F
:10F030009C58200001F095FA07000028F1D0EDB9A6
:10F040003200290020001AF01DF91423FB56002B72
:10F050000DDB13495A09920052581F210B40DA4028
:10F06000D20704D5802322689B05134323608023A5
:10F070002268DB05134300202360D4E7022D03D16F
:10F08000C02132004905DDE7012DCAD180213200BF
:10F090000905D7E7EC6D0400FC6D040018BC030003
:10F0A00000E100E0F0B50D0017000C0085B0019004
:10F0B000019B5E19361B4CB11BF086FE0390032C9E
:10F0C00008D82200300003A91BF0BCFF00203D60DF
:10F0D00005B0F0BD0422300003A91BF0B3FF043CCF
:10F0E000E6E70000F8B5002821DB124B1B688342DD
:10F0F0001DDD114A030198580F2405000F4A1049DD
:10F10000254002405218A90052180B49A0435B1831
:10F11000D9684E1EB1419E68771EBE417140116094
:10F1200001215A68A94018F057FF0020F8BD0120BE
:10F130004042FBE7F46D0400506E0400C001001073
:10F1400000480040F0B5060089B0032803D901202B
:10F15000404209B0F0BD734B1B688342F7DD30239A
:10F160004343714A9F589B181B790693012B79D111
:10F170006E49380001F0F5F905000028E7D00022BB
:10F180006B49B3005A503023734367495B18D96900
:10F190000591596A039139B11B6A059C0492079342
:10F1A000079B049A93425FDC3024A968EA68686888
:10F1B00000F0D5FC7443686800F0D6FC286900F0C4
:10F1C000C9FC594B0F25E4180723A1688E091E407E
:10F1D0000B002B400493069B012B5ED1554A38004F
:10F1E00001F0B0F904990200300000F0C7FCE668B5
:10F1F000514A3100380001F0A5F90723310002001F
:10F20000B0091840294000F0B9FCA6694B4A31000A
:10F21000380001F097F9072331000200B0091840C7
:10F22000294000F0ABFC039B002B5DD1059B38000F
:10F230001E68434A310001F085F9072329000200C6
:10F24000B0093140184000F099FCA26A3D49920093
:10F2500052588021039B38000093C902E36A18F0DA
:10F2600085FF41E0384984E70F230121206801220E
:10F27000034099400F23984318F0AEFE3C2104CC84
:10F2800093000B4031490A401343314A9B18012235
:10F290001A60049B9B18049382E72E4A380001F001
:10F2A00051F904990200300000F068FCE6682A4A2F
:10F2B0003100380001F046F9072331000200B0099F
:10F2C0001840294000F05AFCA669244A3100380051
:10F2D00001F038F9072331000200B0091840294035
:10F2E00000F04CFC039B0BB1002032E7059B38007B
:10F2F0001E681B4A310001F025F90723290002008E
:10F30000B0093140184000F039FCA26A154992005A
:10F3100052588021039B38000093C902E36A19F018
:10F32000D5FBE1E7F06D04001C6E0400C0BC0300D7
:10F33000B810002058BE030040BE030010BE0300FA
:10F3400028BE030008BC0300F0BC0300C00100108D
:10F3500000480040B8BE0300A0BE030088BE030002
:10F3600070BE030008BC03000368F7B5032B31D857
:10F370001A4A126893422DDA30215943184A8E18DE
:10F38000726A3AB38268032A24DC164D9B005C59EA
:10F3900004B1FEE701275F51114BCD58C3680169E5
:10F3A0003079B8420AD1009104222100280018F0D7
:10F3B000DDFE280018F0D2FF2000FEBD00910A49B2
:10F3C000920052582800210019F080FB280019F003
:10F3D000BDFDF1E701246442EEE7C046F06D040094
:10F3E0001C6E0400B810002008BC0300026810B5B1
:10F3F0000400032A19D80E4B1B689A4215DA3023F1
:10F4000053430C4A9A18516A79B10A4958581379EA
:10F41000012B07D118F096FF00202368064A9B00B5
:10F42000985010BD19F086FDF6E701204042F8E73C
:10F43000F06D04001C6E0400B8100020F7B50768DA
:10F4400006001D000191032F00D9B2E05A4B1B6842
:10F450009F4200DBADE030237B4358495C58716824
:10F46000564E20689B191E6AC004C00EB14200DBD4
:10F470009FE0DB698900CB582AB125B16E685168DD
:10F480008E4200D295E03C219E000E404C490B403C
:10F490001E434C4BF61833680BB100233360002A2F
:10F4A00000D178E030237B4344495B181B799C46AC
:10F4B0000ACA002D40D02A68082813D860460128BF
:10F4C0000CD12000FFF790FC0CCD302179433B4854
:10F4D00009180979012966D1002133E02000FFF7DE
:10F4E000EBFCF1E7102813D8604601280CD120006E
:10F4F000FFF756FC0CCD30217943304809180979C3
:10F50000012952D1002131E02000FFF7B1FCF1E7E1
:10F51000604601280CD12000FFF71EFC0CCD3021E5
:10F520007943264809180979012940D1002129E0A9
:10F530002000FFF779FCF1E76246082811D8012A7C
:10F540000AD12A002000FFF74FFC019B012B01D0BC
:10F55000012333600020FEBD2A002000FFF7ACFC31
:10F56000F3E710280BD8012A04D12A002000FFF766
:10F5700017FCEAE72A002000FFF77AFCE5E7012AFA
:10F5800004D12A002000FFF7E7FBDEE72A00200075
:10F59000FFF74AFCD9E7002DD7D0082800D893E719
:10F5A0001028BBD8A6E70021D7E70021E3E7002118
:10F5B000EDE701204042CEE7F06D04001C6E040030
:10F5C000C00100100048004010B50D4CA368D9637D
:10F5D0000C4B1B68B3FBF0F0802301385B049842AE
:10F5E0000CD2C021084A09065060236A1B021B0A7C
:10F5F0000B432362002393600733136010BDC046A2
:10F6000000ED00E0B80E002010E000E0F7B50500C6
:10F610000800002961D06B055E0D33B980235B03C0
:10F620009D4205D24A199A422FD30120404254E00C
:10F6300043F6FF722C4BEB1893421DD882224B19D4
:10F6400052039342F1D240F2FF73C918CB0A0193DF
:10F65000EEB1FEF707FA80220300520513405A422A
:10F6600053415B42214A1B0F1B079B180822196854
:10F670000A431A60002715E041F6FF721C4BEB1895
:10F680009342D2D889224B19DAE70126DBE72023FF
:10F69000184A11680B431360ECE718F01BFB0400D9
:10F6A00030B90137019BF80240199F42F5DB002475
:10F6B000A6B1FEF7D7F980220300520513405A4243
:10F6C000534108215B42094A1B0F1B079B181A680C
:10F6D0008A431A60631E9C416042FEBD2021054A98
:10F6E00013688B431360F5E70000F0FF00C0005083
:10F6F0000000EFFF00C00040F0B505000E00140050
:10F7000085B0002A47D080235B03984205D21218A7
:10F710009A420DD3012040423EE043F6FF72294B4E
:10F72000C31893423AD88222231852039342F1D24B
:10F7300003232A001A4001921D4212D00427BF1A47
:10F74000A74200D92700280018F066FB019B03A9F7
:10F7500003903A003000C9181BF074FCED19F6193B
:10F76000E41B2700A319DB1B60190193C01B032FA7
:10F770001DD8A3089B00E21A5F4201929C420AD066
:10F7800003239C43601918F047FB019A039003A9D7
:10F79000F01B1BF057FC002005B0F0BD41F6FF72D6
:10F7A000094BC3189342B5D889222318BDE718F036
:10F7B00033FB0422039003A901981BF043FC043F90
:10F7C000D0E7C0460000F0FF0000EFFFF0B50500F5
:10F7D0000F00140085B0002A62D080235B0398429A
:10F7E00061D212189A4269D2FEF73CF980220300D6
:10F7F000520513405A4253415B42424A1B0F1B07BA
:10F800009B18082219680A431A6001232A000193F1
:10F8100003231A4000921D4216D00426B61AA642AF
:10F8200000D92600280018F0F7FA009B039003A8DF
:10F8300039003200C0181BF005FC2800039918F0AD
:10F840005BFBBF19AD19A41B260063199B1BE119B3
:10F850000093891B032E44D8032322001A401C4224
:10F860000AD09C43E119043B03A803931BF0EAFB75
:10F870000399281918F040FB019B002B3BD0FEF7A1
:10F88000F1F880220300520513405A4253410821E7
:10F890005B421C4A1B0F1B079B181A688A431A609D
:10F8A000002005B0F0BD43F6FF72174BC31893421A
:10F8B00007D882222318520393420BD301204042DF
:10F8C000EFE741F6FF72114BC3189342F6D8892235
:10F8D0002318F0E720230E4A11680B43136000231E
:10F8E00094E7042203A81BF0ADFB0399009818F0DD
:10F8F00003FB043EA9E72021054A13688B431360EC
:10F90000CEE7C04600C000500000F0FF0000EFFF4F
:10F9100000C0004070B514001D0006000C2017F058
:10F92000BFFEAD0718F020FDA1082943300018F0F4
:10F9300097FD0C2017F0C6FE002070BD70B50023A7
:10F940000125FF26074C0200DA402A4205D06168F3
:10F950001A019032B1430A4362600133062BF2D19F
:10F9600070BDC04600D00B4002004306DB0F10B54F
:10F97000180240F20024130600D5204340F2004153
:10F98000D30500D5084340F60003224200D01843B7
:10F990000A4202D041F2000108431A4202D042F268
:10F9A0000003184310BD000045F6A522044B9A60E1
:10F9B0002C2219689143243A0A431A607047C046C2
:10F9C00000000440042370B503400D0040062BD511
:10F9D00003B115001F4801F07BFC29681E4801F0A7
:10F9E00077FC69681D4801F073FCA9681C4801F0A8
:10F9F0006FFCE9681B4801F06BFC29691A4801F0AB
:10FA000067FC6969194801F063FCA969184801F0AD
:10FA10005FFCE969174801F05BFC174B1B68012B81
:10FA200009D119F0B3FAFEE713B1EFF38985D1E7F5
:10FA3000EFF38885CEE7022B0AD1104B1C683CB14E
:10FA40002800640864002100220023001AF05EF8F8
:10FA5000FEE7C04612B9030021B903002EB9030026
:10FA60003BB9030048B9030055B9030062B903006C
:10FA70006FB903007CB90300D4100020D810002017
:10FA8000014B186000207047D4100020014B186013
:10FA900000207047D8100020014B18687047C046FE
:10FAA000D410002010B520B1002018F075FF002000
:10FAB00010BD0120F9E7000030B504008BB001ADA6
:10FAC000280018F007FD20000C2200211830FDF757
:10FAD0006BFD0020019B084A9B186361029B013B60
:10FAE0002361039BE360059BA360069B6360079B08
:10FAF00023600BB030BDC04694F8FFFF030040F216
:10FB00006C7100B55A698BB0521801921A6901A83C
:10FB100001324260DA6882609A6802615A68426122
:10FB20001A689B698261C3600123C36118F09CFD60
:10FB300000200BB000BD000010B5054817F0B0FD67
:10FB4000002018F029FF002018F004FE002010BD4E
:10FB50000100004010B519F021FA002010BD10B5C9
:10FB600017F008FD002010BD10B517F099FD00201A
:10FB700010BD10B517F0A6FD002010BD13B5072469
:10FB8000104BC0000193019BC018CB17234001907C
:10FB90005B180198DB109B001B180193019B0A481E
:10FBA0001B68014004D5082001394042014301315E
:10FBB0000F208900884083431A43019B00201A606C
:10FBC00016BDC046300000400700008010B519F097
:10FBD000DDF9FEE770B504000120ACB3204D2B68C1
:10FBE0004BB917F093FF80221E4928600300086874
:10FBF000120602430A6004211A000A400B4215D182
:10FC00000220034214D1DA071FD41A071FD4DA06E0
:10FC10001FD420221800104013421CD11A003C317E
:10FC20000A400B4204D0104A032001E000220120C8
:10FC30000E4B1D6800239D4206DD0D4E19018919EA
:10FC40000968914209D1236070BD0A4AECE70A4A6B
:10FC5000EAE70A4AE8E70A4AE6E70133EBE7C04683
:10FC6000C81000209402004046410050F46D04008A
:10FC7000506E040080400050404000504240005010
:10FC80004C400050F8B580230024EE22DB055C6375
:10FC90001C63DC639C635C641C64DC649C645C6566
:10FCA0001C65DC659A655C661C66DC669C66FDF717
:10FCB000D9FE802503006D052B405A4253415B421B
:10FCC000644F1B0F644E1B07DB191E60FDF7CAFE55
:10FCD00003002B405A4253415B42604A1B0F1B07F3
:10FCE0009B181E60FDF7BEFE03002B405A42534195
:10FCF0005B425B491B0F1B075B181E60FDF7B2FEE2
:10FD000003002B405A4253415B4256481B0F1B07CE
:10FD10001B181E60FDF7A6FE03002B405A425341FC
:10FD20005B42514A1B0F1B079B181E60FDF79AFE92
:10FD300003002B405A4253415B424C491B0F1B07A7
:10FD40005B181E60FDF78EFE03002B405A425341A4
:10FD50005B4247481B0F1B071B181E60FDF782FE06
:10FD600003002B405A4253415B42424A1B0F1B0780
:10FD70009B181E60FDF776FE03002B405A4253414C
:10FD800001265B421B0F1B077642DB199E60FDF7C5
:10FD900069FE03002B405A4253415B422F4A1B0F1E
:10FDA0001B079B189E60FDF75DFE03002B405A4227
:10FDB00053415B422A491B0F1B075B189E60FDF7EE
:10FDC00051FE03002B405A4253415B4225481B0F12
:10FDD0001B071B189E60FDF745FE03002B405A428F
:10FDE00053415B42204A1B0F1B079B189E60FDF787
:10FDF00039FE03002B405A4253415B421B491B0F03
:10FE00001B075B189E60FDF72DFE03002B405A4236
:10FE100053415B4216481B0F1B071B189E60FDF7E2
:10FE200021FE03002B405A42534102215B42114AFA
:10FE30001B0F1B079B189E600F4B10489A680A43C4
:10FE40009A600F4AD06090609A6820008A439A6056
:10FE5000F8BDC04600400050555555554040005033
:10FE600080400050C04000500041005040410050D0
:10FE700080410050C04100500002004007070707C2
:10FE8000FC10044010B517F0C7FD17F079F90020F9
:10FE900010BD0000012310B5002825DB134B1A68A4
:10FEA0000123824220DDDB1803291DD8104B0201FB
:10FEB000D258104B0C049A4210D00F4B0C069A42A9
:10FEC0000CD00E4B8C069A4208D00D4B0C079A4270
:10FED00004D00C4C0323A24206D18C07FFF702F991
:10FEE000200017F0B7FD0023180010BDF46D0400CA
:10FEF000506E04008040005040400050424000508E
:10FF00004C4000504641005070B504008AB00120BA
:10FF1000002C49D001AD242200212800FDF744FB2C
:10FF20000223224A22489168224E0B439360C12348
:10FF3000214A51680B4353600022110017F01AFB4D
:10FF40001E4B33603268012A03D033603368012BC3
:10FF5000FCD140F26C72636928009B1801932369FD
:10FF600001336B60E368AB60A3682B6163686B610E
:10FF70002368AB61A3690124EB60EC6118F014FC09
:10FF80002000F46218F07AFC80210D4B1A680D4BAA
:10FF90001868084202D0013A002AF9D180220020D4
:10FFA000196812040A431A600AB070BD00020040CA
:10FFB0000100004000100440FC1004405713EBA562
:10FFC000B80E00209002004010B5054920B1054848
:10FFD00017F092FF002010BDC220C003F8E7C04612
:10FFE00000FFFFFF08006100C22070B5C00317F0DA
:10FFF00013FFFF2528400400054817F00DFF5A3C69
:020000022000DC
:10000000631E9C4128405A2800D00234200070BD55
:100010000800610048B98021C905CA6A044B1A402A
:1000200040F204131343CB6270470120FCE7C04643
:10003000F8FEFFFF10B517F083F8002010BD10B5D3
:1000400017F088F8002010BD10B517F099F80020BF
:1000500010BD10B517F0BAF8002010BD10B501237F
:100060000C0019B117F02EFC00232060180010BD01
:1000700010B517F08DF9002010BD10B517F0F6FA85
:10008000002010BD10B517F0FBFA002010BD10B510
:1000900017F0FEFA002010BD10B5012314001AB1AC
:1000A00017F020FB00232060180010BD10B517F0DA
:1000B00061FC002010BD10B501230C0019B117F030
:1000C00063FC00232060180010BD10B517F070FC11
:1000D000002010BD10B517F097FC002010BD10B522
:1000E00017F09AFC002010BD10B517F0B3FC0020EB
:1000F00010BD10B5040001201CB117F007FD2060F1
:10010000002010BD10B517F009FD002010BD000043
:100110008021084B1A68084B1868084202D0013A3F
:10012000002AF9D18022196812040A4300201A60BB
:100130007047C046B80E0020900200408021074B57
:100140001A68074B1868084202D0013A002AF9D110
:100150001A68044900200A401A607047B80E00204F
:1001600090020040FFFF7FFF10B518F0F5FE002061
:1001700010BD10B5040001201CB118F0F1FE206084
:10018000002010BD10B5040001201CB118F0EEFED7
:100190002060002010BD10B5040001201CB118F033
:1001A000E9FE2060002010BD10B5040001201CB144
:1001B00018F0E8FE2060002010BD10B518F000FF18
:1001C000002010BD10B501230C0019B118F020FF5C
:1001D00000232060180010BD10B518F081FF00202A
:1001E00010BD10B518F0B2FF002010BD10B518F00A
:1001F000D5FF002010BD10B501230C0019B118F077
:10020000CBFB00232060180010BD10B518F03EFB9A
:10021000002010BD10B518F043FB002010BD10B534
:1002200018F0A4FB002010BD10B518F027FB00202B
:1002300010BD13B5049C009418F0F4FB002016BD0B
:10024000024B10308000C150002070470010044065
:10025000024B10308000C0587047C0460010044068
:10026000034BD86A43F600731840431E9841704709
:1002700000100440014BD862002070470010044079
:1002800010B5FFF75BFB002010BD00000122084BFA
:1002900008491A60084B094A0020DA60DA680A4007
:1002A000DA60074A9A609A680A409A607047C046C6
:1002B000B0020040FBFBFBFBFC10044007070505F8
:1002C00007070707F8B50400D8B10023066806221F
:1002D00018001D0040F20F0C01219140571C3142C3
:1002E00007D00B439100072A0EDD624620398A4071
:1002F00015433A000C2FEFD19E420AD0224800F05D
:10030000E7FF01204042F8BD62468A4010433A00B0
:10031000E2E70EB91D48F2E78022D205D16DA9436C
:10032000D165916D814358069165C00F1A0601D5BC
:1003300002221043DA0501D5042210439A0501D5A3
:10034000082210435A0501D5102210431B0501D580
:1003500020231843FFF7F2FA0023A1681A0060680F
:1003600018F09EFA226900230121E06818F0FEFAD5
:100370002068FFF7F9FA064BD86218F07FFA80225E
:10038000044B00201A60BEE789B90300D3B903000B
:100390000010044000E100E0014B18687047C046BF
:1003A000D010002043F6007270B50D4DEB6A134279
:1003B00010D0EB6A0B4E134033600B4B1C6854B1EA
:1003C00030686408640021002200230019F09EFBBD
:1003D0003368EB6270BD054800F07AFFF8E7C0466D
:1003E00000100440D0100020CC100020FBB9030006
:1003F000014B186000207047CC10002001600020E5
:1004000070470300012011B100201B680B6070478A
:1004100080220123D205D16900200B43D3617047AC
:100420000B4B0C4A9B6810B51A6640F200120A4B3F
:1004300040F200601A60FF3A1100002319F060F8E2
:100440004023064A002011680B43136010BDC046CC
:1004500000ED00E0A9F9010000E100E00000044027
:100460000021074B074A1B6811608021C9051068ED
:10047000084202D0013B002BF9D100207047C04652
:10048000B80E00200000044010B50D2017F008F948
:1004900017F0BEFD034B186C03231840431E984110
:1004A00010BDC0460050034070B5D0B010AE40F251
:1004B000001200213000FDF777F840220021684645
:1004C000FDF772F8FFF7E0FF6D46040001282FD01A
:1004D000102231001000FFF70FF9174B109A9A42C3
:1004E00028D1119A154B1399D318994222D1202162
:1004F00042B11F23D018C11A0978E954013BFAD23E
:10050000203211003F2600236E44C85CF21A0133EA
:100510001070202BF9D12A000949002017F0ACFDFA
:100520000120074908AA17F0A7FD200050B070BDB0
:100530000224FAE70124F8E74E75424CB28ABDB3B3
:10054000100604000300080009B970470C32106857
:100550000028FAD09842F9D150688842F6D19068C4
:10056000F3E70200080003680BB9180070479342D4
:10057000FCD01830F7E70000012110B5024B4942CA
:100580001868FEF7B9FC10BD506E040010B5034B9F
:100590000A0001001868FEF701FD10BD506E04004E
:1005A00070B50468256805B1FEE7012323602000CB
:1005B000A36A9847256070BD70B50468256805B1C9
:1005C000FEE7012323602000E36A9847256070BDA1
:1005D00070B50468256805B1FEE70123236020009B
:1005E000236B9847256070BDF7B5056801932B68AC
:1005F0000F00140003B1FEE701232B601CB920009B
:1006000000232B60FEBDEB6922001E00390028008C
:10061000019BB04760B10028F2DB089B089A1B6879
:100620003F181B181360019B241A1B180193E5E760
:1006300001204042E4E7F0B589B00400039100F0E6
:100640008FFA069000F08CFA07900698079900F050
:100650008DFA04ABDE1DA36802905B6A6569997828
:10066000320001232000A847050078B92023E26862
:1006700031781A420FD0403319420CD0A3680200DF
:100680005B6AA669997903002000B04701256D4295
:10069000280009B0F0BD01231F008F4301971A42C3
:1006A00024D0A2682000526AD17862691700320013
:1006B000B84702000028E9D1302133780B4207D037
:1006C000A368A5695B6AD97903002000A847DDE724
:1006D000019A3AB9012000F051FA029B039A934221
:1006E000B0D9D3E75BB2002BF4DAD1E7019B002B42
:1006F000F0D0CDE7F0B5050087B040680C001600DB
:100700000193FEF731FE00282ED1AB7C02AA1370B4
:10071000AB68198C0123042902D1230E53700223E4
:10072000210CD154200AD11804AF033348708C70C7
:10073000049205933A00002301216868FEF77EFECB
:10074000040048B9019B210004933A002300686823
:100750000596FEF773FE04006868FEF747FE04B9CD
:100760003400200007B0F0BD01246442F9E7F0B581
:10077000050087B040680C0016001F00FEF7F4FD6E
:1007800000282CD16A466B7C1370AB68198C01234E
:10079000042902D1230E53700223210CD154200AC4
:1007A000D118033348708C70029203930121002307
:1007B000686802AAFEF742FE040040B92200210048
:1007C00004AB686804975E60FEF738FE0400686852
:1007D000FEF70CFE04B93400200007B0F0BD012480
:1007E0006442F9E7F0B585B000936B4605004068B8
:1007F000DC1DD9711600FEF7B7FD0300F0B9012129
:1008000002AF686802947960A6B13A00FEF716FE5E
:10081000040048B9009B3A007B602100230068680F
:100820000296FEF70BFE04006868FEF7DFFD20006D
:1008300005B0F0BD33003A003100F2E70124644214
:10084000F5E7F0B587B01E006B4605004068DC1D7B
:10085000D9711700FEF788FD0300B8B90121686857
:1008600002AA02940391FEF7E9FD040040B92200B8
:10087000210004AB686804975E60FEF7DFFD0400AA
:100880006868FEF7B3FD200007B0F0BD01246442A4
:10089000F9E710B5836884695B6A597800231A0008
:1008A000A04710BDF0B5066885B035680291019289
:1008B000039305B1FEE701233360019B9D4201D301
:1008C000002421E0029B019AEC18B368521BDF8BD5
:1008D0007B1E2340FF1A974200D917003000FFF714
:1008E000D8FF326A039B944621003A0064463000E8
:1008F0005B19A047041E07DB40F2E8313000FFF728
:100900009AFE30B10124644200232000336005B018
:10091000F0BD0A9B0A9A1B682D191B191360A74288
:10092000CBD0EFE70021F0B5484B046885B0636198
:10093000474B0622A361474B6162E361464B0500CA
:10094000236202A8FCF730FE06239F21200002AAA2
:10095000FFF777FF060020B101267642300005B090
:10096000F0BD3E4F0322380002A91AF0FDFA012320
:10097000103F2B7520B1029B013B0333ECD8384F5D
:100980000022EF61A76022607A8C510503D5102107
:10099000E0680143E160B98BB8694143E960796A75
:1009A000D2074ED541F20002AA60CA7A2274FA8BAD
:1009B0002A617A6A127A62747A6A927AA274A26A54
:1009C0004AB1E26A3AB1226B2AB1264A2A62264A21
:1009D0006A62264AAA627A8C110603D50121E06870
:1009E0000143E160910503D50221E0680143E16024
:1009F000D10403D50421E0680143E160510403D52B
:100A00002021E0680143E1603B7C1F2B05D0892B4E
:100A100003D0BF2B01D0D205A0D52000FFF739FFAE
:100A20006A460023D371A36820005B6AA56919791F
:100A300007320123A84740F2E8312000FFF7FBFD11
:100A40008CE7BA69AA604A7BB0E7C0464308020057
:100A5000E50702006F070200F506020020BF030051
:100A600038BF0300A1050200B9050200D10502004C
:100A70008368F0B51500B2FBF3F2534385B006006E
:100A8000046801919D425FD1236803B1FEE7012311
:100A90002360C368AB4244D1E268042311001940CB
:100AA0000F001A423DD12000FFF7F3FEA3683A0081
:100AB0005B6A2000997BA5693B00A84728B101200B
:100AC00040420023236005B0F0BDF368B26840F2F5
:100AD000E831B3FBF2F320005943FFF7ACFD0028E7
:100AE000EDD1A36820005B6AA569597900231A003B
:100AF000A8470020E5E72000FFF7CBFE636A9BB123
:100B00002000019998470028DBD1B368019A40F290
:100B1000E831D21820000192ED1AFFF78CFD002871
:100B2000CDD1002DE7D1DCE7A36801981B8C03AA87
:100B30001900013905D2A069217C07002000B847BF
:100B4000E1E75054000AF4E701204042BBE700000F
:100B5000024A1368013313607047C046DC1000205E
:100B6000014B18687047C046DC1000200300081ACB
:100B7000994289414942401A7047000073B5040008
:100B8000054D2E68C0462B68300001930199FFF790
:100B9000EDFFA042F6D973BDDC10002010B502496C
:100BA000FEF712FD10BDC046510B020010B5040047
:100BB000044883685A1E51185A420A40210015F011
:100BC000AAFF10BDBC0E00201FB50B0003A90091A9
:100BD0000100024815F0DCFF05B000BDBC0E00208E
:100BE0001FB50B0003A900910100024815F0B0FFEA
:100BF00005B000BDBC0E002070B50D000400110052
:100C00001A0040B1036918002BB11E68300016B1FC
:100C100060682818B04770BD70B503000C00110063
:100C200040B1026910002AB19568280015B15868D2
:100C30002018A84770BD70B50D00040011001A00FF
:100C400040B1036918002BB15E68300016B16068CE
:100C50002818B04770BD000010B594B05022002194
:100C600004006846FCF7A0FC0E4B6A461868002199
:100C700050231430FFF7C0FF0B4B009A9A4209D063
:100C80000223238030336360002301202381A37279
:100C900014B010BD0C22200011A91AF0D3F90020C5
:100CA000F6E7C046400F0020434D424130B50500F5
:100CB00095B04022002101A8FCF776FC0B4B2900DF
:100CC0001C680B4B14340C2211A800931AF0BAF9CB
:100CD000502200212000FFF79FFF50236A46002189
:100CE0002000FFF7A8FF002015B030BD400F002006
:100CF000434D424107B56B46D91D087001220020C3
:100D0000FEF74CF907BD7047F0B591B0049316ABF0
:100D100010CB189E1B781A9F059302901B9B039182
:100D200001920CB91022934340F200421900114085
:100D30000691134200D0E4B161219A0600D5412109
:100D400022000025C9B20A390791B2FBF6FC6446BD
:100D500074430799141BE0B24118C9B2092C01D899
:100D60003030C1B208A86C1C2954B24201D3202CE7
:100D700011D1022219001140079113421CD1013AEE
:100D80001A4037B12AB1059911B90C310B4200D084
:100D9000013F302107E025006246D6E7202C05D030
:100DA00008A8215401341998A042F7D822B1302262
:100DB000A74201D9202C13D1DA063ED5069AA2B952
:100DC0009CB1199AA24201D0BC420ED1621E012CE4
:100DD0000AD0023C102E0AD01400022E29D139E08C
:100DE00008A962540134E3E71400102E2ED19A06AC
:100DF00017D47822202C17D120249B0746D0019BA2
:100E000025000593059B1819421B002D40D1079B17
:100E10002BB1019BC41A019B1819A74240D811B0ED
:100E2000F0BD202CE8D0582208A90A550134202C06
:100E3000E2D0302208A90A550134202CDCD0059AD2
:100E400052B12D2208A90A550134D6E7022EEED15F
:100E5000202CD1D06222E7E75A0701D52B22F1E7F7
:100E60001A07CAD52022EDE72020049B0399029E91
:100E7000B0470135019B1A1B5219AF42F4D8002626
:100E8000A74200D33E1B019BF318B9E72500F1E709
:100E900008AB013DE85C0399049B029EB047B1E7B3
:100EA0000200049B20200399029DA8470134B2E769
:100EB00010B508B1FFF71EFF10BD0000F0B591B0EE
:100EC0001F00169C09900A91089209B9B34B099327
:100ED0000026FAE00137252806D03200751C089B51
:100EE0000A99099EB04757E100230122082522E014
:100EF0002D2838D030281CD0002206920200303A2B
:100F00000A25092A20D83978781C0A00303A092A9B
:100F100032D900213A7807912E2A4CD140F2004173
:100F20000B4379787A1C08003038092839D80A2709
:100F30002FE013430F003878791C2B2816D0D7D810
:100F4000202815D0232815D0002206922A28E0D187
:100F500004CC0692002A04DA02221343069A524273
:100F600006920F00D5E702200343E3E70420FBE7E6
:100F70002B43DFE71020F7E7069A07006A43303A71
:100F80008A180692BFE7079A7A43303A8A1807927E
:100F90002A001178551C080030380928F3D91700A9
:100FA00009E02A29FBD104CC02370792D2430799E2
:100FB000D217114007913A78791C6C2A22D01CD89C
:100FC000682A27D06A2A2DD0390008784F1C782843
:100FD00083D8632829D8622800D14CE1632800D146
:100FE00095E0252800D178E7582800D075E7202221
:100FF0001343103A0C218B4348E17A2AE4D140F2A2
:1010000000120BE07A786C2AF9D140F200321343D7
:10101000B91CDAE77A78682A02D080221343D4E731
:10102000C022F4E740F20022F8E70100012264390F
:10103000C9B28A4011005A4D29402A4219D1732859
:1010400000D1AFE0702800D047E721221343059379
:1010500008230493079B019103931023029308CC68
:10106000320000930A99089B0998FFF74DFE06008D
:101070002BE06F2800D000E10822BBE77828B9D028
:1010800093430A22642800D100E1B3E7216858069F
:1010900001D5C9B20EE1180600D40BE109B209E18D
:1010A00099B9251DD80521D50593069B0292049375
:1010B000079B01910393236800933200089B0A99D0
:1010C0000998FFF721FE2C0006003878002800D090
:1010D00000E7089B32009E4200D35A1E0020089B66
:1010E0000A99099CA047300011B0F0BD216858064C
:1010F00009D5C9B20593069B02920493079B0393FB
:1011000000230193E1E01806F4D589B2F2E7022248
:10111000190011400C91134228D00123079323009A
:1011200001CB32000B930A99089B751CC0B2099E33
:10113000B0470C9B7BB32A00079E22E02020089B2F
:101140000A99099DA847079A0699531C07939B1B68
:101150009942F3D8022309B10B000133069A079391
:1011600000230AB11300013BF618D8E73200EBE781
:10117000531C0C932020089B0A99099CA0470C9AA9
:101180000136069BB342F3D8069A079900238A4298
:1011900000D3531AED180B9C2E0096E7070D0200A2
:1011A00021081200220002CA0C92079A0B910AB978
:1011B000012252420B990C008A18217809B1A242EF
:1011C00014D10B9A1900A41A40F2004211400D915B
:1011D000134203D0079A944200D914000222190046
:1011E00011400E91134217D1320009E00134E4E7B7
:1011F000531C0F932020089B0A99099DA8470F9A1A
:10120000A31B06999B188B42F2D30023A14200D363
:101210000B1B0134E418F618350008E007936B1C2B
:101220002A000F93099D089B0A99A8470F9D0B9BC5
:101230009B1B585D38B10D9B002BF0D0079B079A84
:10124000013B002AEAD10E9B9BB12A0007E0531C08
:1012500007932020089B0A99099EB047079A631BB1
:101260000699D3189942F2D80023A14200D30B1B50
:10127000ED180C9C90E70222BCE610226F2800D9E2
:10128000FCE693430A22692800D0FAE6590501D505
:1012900001218B4340F200211940692802D06428C3
:1012A00000D0FDE6002900D00FE7251DD90500D4A8
:1012B000ECE621680593069B02920493079B039337
:1012C000CB0F0193CB17C91859400091F5E6C046E2
:1012D0000FB41FB5012206A908C95242039100911B
:1012E000034802A9FFF7EAFD05B008BC04B018479F
:1012F000B10E0200002370B58900D6188B4200D1D0
:1013000070BD7478357824022C43B5782D042543BC
:10131000F47824062C43C4500433EEE7F0B581681A
:10132000B1B08C460168026A03914168836B0491F5
:1013300011000193C36B06690293036B714007931D
:10134000436B17910893436A45691900C768009079
:10135000604669401891019941400B91029979408A
:101360000C91019951401991029959401A91019992
:10137000089871400D91029969400E9100998C6A0C
:1013800007994C400099C96A414003986040059014
:1013900004984840069005985040069A21905A407B
:1013A0002292179B0B9A53401B930C9A189B534005
:1013B0001C93059A019B53402393069A029B53402A
:1013C00024936346059A53401D93069B1D9A7B40C8
:1013D0001E930D9B1C98534025931E9A0E9B5340C1
:1013E0002693009B1B9A9B695340009A5E40D269EA
:1013F0000F96424007985540434008981095424048
:101400000398109D70402790049868402890300001
:101410006040119028004840129019985840079059
:101420001A98079D504008900398684029900498A6
:10143000089D68402A90079D119868402B90089D50
:1014400012982B9F68402C900798604013902800BA
:10145000484014901C991098139D01400B981B9CB8
:1014600028401F90149D0C9834402840199E2090CD
:1014700007981A9D064008986340054017984A400F
:1014800038408446189F2C98074060466F40704053
:10149000159016970D98119F384084460E9F12980C
:1014A0000740604670408446259E27986F4006405E
:1014B000269D289873400540169E6A40159D56400B
:1014C0005D40039A219B22981A40049B03400D988B
:1014D00042400E9843401198424012986240434067
:1014E0004B4061467B4051400A93059A1D9B0991F0
:1014F0001A401E99069B0B400B994A400C994B4091
:1015000013994A4014994B401F994A4020994B40E7
:1015100015995140169A15915A401692019A139BAB
:1015200002995A40149B299859401F9B249C5A4069
:10153000209B5940239B0340534062462A985340C6
:1015400004401800099A61406A409446159C79400D
:101550002C4060401F9008000A9F169A7740324046
:101560006646504020901F98209D064009983D40B7
:10157000704001900A98099E6840029015980A9D53
:1015800058402D901698664048402E902D98554012
:1015900006402E98744005401800704009900800DD
:1015A0006A4068400A400A901599099823404140D2
:1015B000594015911F99169C0A984B402099444018
:1015C00054405140019A01981340029A16941140D8
:1015D00062465340159A79405A401F9222004A4071
:1015E0002092099A0A9C42400298159D4440019815
:1015F000029F5840844609981F9E68402D90169D72
:101600000A984F406840209D2E90654003982F9582
:10161000099D56402840039004980A9D284065463D
:1016200004901398284013901498019D384014900A
:10163000059818400590069808400690299828407B
:101640002990029D2A9828402A902B982F9D30405F
:101650002B902C9828402C90159D2598284025905B
:10166000169D26982840654626900B98284084466B
:101670000C980740179830400B9018982F9D199E92
:1016800028400C900B9816401A9D704017900C98AB
:101690002540684018901D98059E03401E98069DA1
:1016A0000140299858402A9B19904B401A930F9952
:1016B0002D9B2E981940109B034013984840149975
:1016C0000F9059406346109103995940049B48403C
:1016D00010997B405940179B1D905E40189B1E91AE
:1016E0005D40079B1A40089B1F991C40139B209844
:1016F0005A40149B5C402B9B5A402C9B6340119C8E
:1017000007930C40129901402B9844402C98744048
:10171000414069402D9811911B99089401401C9CEF
:101720002E980440259841402698714044400598E1
:101730006C40504005900698239D584006900198B3
:10174000249E054002984A4006401D9845401E9838
:1017500046400898684001901198289D704002907A
:10176000279E1598009B064016984E4005400F98FE
:1017700065407040186210989A6368405862079BF1
:10178000009A6340D363126A059B06995A4003008E
:101790004B40D243DB4300990A634B631F9A0D9B76
:1017A000209913400E9A0A400B994B400C994A40DD
:1017B00005994B4006994A4001994B400299DB43F9
:1017C0004A40D24300998B62299BCA62039A2A99A4
:1017D0005A40049B72404B4000996B408A61CB6138
:1017E000099A219B0A991340229A0A4025994B4055
:1017F00026994A4001994B4000990B61029B5A403F
:101800004A616246199B08995A401A9B4A401199AD
:101810007B404B40D243DB4300998A60CB60179AF0
:101820001D9B1E995A40189B4B4019994A401A9982
:10183000D2434B40DB4300990A604B6031B0F0BDAE
:10184000F0B58368C4680700466802682100180084
:1018500093B000930194C0186141D74B0D009C4692
:1018600003401800634611001D40D44B340019405A
:101870000391010003981C400143099161462543EF
:101880005208F40700982243019C76080C401A4045
:101890001E400840039502432643B869F9690400D5
:1018A0000D00009001910019694104000D0061468E
:1018B0002140080061460A923A690D401100194022
:1018C0000591010004967E69059834000143059155
:1018D00061461C4025435208F40700982243019CAE
:1018E00076080C401A401E4008400B9502432643E0
:1018F000B86AF96A04000D0000900191001969416D
:1019000004000D0061462140080061460C963E6AC5
:101910000D40310019400791010006927A6A07983C
:10192000140001430D9161461C4025430098079522
:10193000D40775082543019C1D40084052080C40FF
:1019400005431A40B86BF96B0E9522430D00040055
:10195000664624184D4126400F96664600923A6B23
:1019600035400892089C7A6B1C40260014001C40ED
:1019700010940F9C34432600109C25430F95089D1E
:10198000D4076D082543520864461D401A4063463B
:10199000214003400A431D431092059B0B9A9B0F65
:1019A00091001943059B864AAC46039C099D98000B
:1019B000844B15401440184019402843214311908E
:1019C000089109980399840889070C43039905989D
:1019D0000B9D890818401D401440114004432943C1
:1019E0000994039106990A9D880F0C99049C89001B
:1019F00001430698154080001440184019402843C0
:101A000021430B9005910A9804998008890708439F
:101A100004990C9D8C080699104019401D400843FC
:101A200014400F992C430A900494B00F079C89002E
:101A300001431440194021430C910799B0008C07D1
:101A40000D991E408908214311403143069161469A
:101A50000D9D079C1540184028430F9DA4081D406C
:101A600014402C430794109C009D890FA4000C4344
:101A700015401C402C430D94009C6146A5070E9C0C
:101A80000E9EA4082C43009D1640AD0814402A4029
:101A90006546890019403143109E1D4033401A436A
:101AA00000920C9A2C43A446030F1401119E464A3F
:101AB0001C43464B16401C400E9434000501089E02
:101AC0001D4025430E9C164034437C60089C3D60BD
:101AD0002507119C0C9E24092C43089D1840144096
:101AE0002D091E40044315400D9835433C627D622C
:101AF0000C0F059D000120430B9E15401840284304
:101B00000C011640F8601C4005983443BC60040783
:101B10000B981940000920431040059C0D9D084377
:101B2000069924091D40B8621440080F07992C43F8
:101B3000FC620901039C01430698099D1440194069
:101B40002143000115407961184003992843386109
:101B500008070999069C090901431C4011402143CB
:101B6000396361460398079D00091D4010402843D2
:101B70007863080F00990A9D090101436046049C9F
:101B80000001154014401840194028432143B86112
:101B9000F9610A980499000909070843049910405B
:101BA00009090A406146009C194023400843134339
:101BB000B863FB6313B0F0BDAAAAAAAA5555555540
:101BC00033333333CCCCCCCC0F0F0F0FF0F0F0F01D
:101BD000F0B58C46D768116887B054688EB2019012
:101BE000090CB8B293680290220C380C0F02A5B20F
:101BF00003900F43300211029CB211431B0C30437F
:101C00002E022E4305911D02210221432B43134C2A
:101C1000134D0902204029401B02274001432B405D
:101C200001983B43016043603000039A029B12021B
:101C30000492029A039912021A43049B20400B4318
:101C400005991B020C40614612022A402B400243B8
:101C500023430A604B6007B0F0BDC046FF00FF00A1
:101C600000FF00FFF0B501329201364B91B08218AF
:101C70000D684C682E001E40009626001E400196FE
:101C8000E7076E083E4367081E401F400296039711
:101C9000AE08A7073E431E400496ED086607A70856
:101CA0003543E4081D401C4006950794019D009CA7
:101CB0002D01240F2543009C1F4024010995089401
:101CC0000597089C099D009E019FA41BBD41029E93
:101CD000039F04604560029C039D240F2D01254352
:101CE000029C0B9524010A940A9C0B9DA41BBD41E8
:101CF0008460C560049C059D240F2D012543049C30
:101D00000D9524010C940C9C0D9D049E059FA41B15
:101D1000BD41069E079F04614561069C079D240FF7
:101D20002D012543069C0F9524010E940E9C0F9DBA
:101D3000A41BBD418461C56120300831824297D126
:101D400011B0F0BD111111110300F7B5403301932B
:101D5000144BFF279C464FF60076436804681A0729
:101D600021091143624611402203120F12070A4350
:101D7000A1B20A43240E19021D0A21433D403140FD
:101D80002943F0251C0B2D031B012C401B0D1B05AB
:101D90000C431C43019B0260446008308342DCD149
:101DA000F7BDC0460000FF0F10B590B038220021EB
:101DB000040002A8FBF7F8FB002368460193009497
:101DC000FFF73EFD6846FFF7A9FA6846FFF738FDC2
:101DD000009810B010BD0000F0B500279408D9B0ED
:101DE000E31D0A009B00210004901CA80293FFF74A
:101DF00081FA40213D00631E0CAA9B005218D05866
:101E0000A30003931CAE0194002D00D08AE00823A8
:101E1000D841FFF7C9FF484BDB5D584033680135B7
:101E20005840039BF050A54201D100250137019B8A
:101E3000043601330193019A029B9342E4D10023BB
:101E4000049D0193019B0CAC9A001CAB20009A18D6
:101E500014A9FFF7BDFE0C980D99226A636AA06071
:101E6000E16020616161A061E1612000A262E36242
:101E700022636363A263E363FFF7E2FC236A2F49F3
:101E80000393636A2E4E0493A36AA7680593E36ADB
:101E9000E0680693236B0C9A0793636B0A400893E0
:101EA000A36B37400993E36B30400A9363683A436E
:101EB0000B402769034323480B930740BC46634606
:101EC00067691A430B9B07403B430B931E4FA36963
:101ED000E4693B401A430B9B3C4023432A606B6000
:101EE000049A039B0B401140059A069C3240134311
:101EF000079A344002401343099A0C433A40134373
:101F0000AB600899019B014004330A980193214377
:101F10000740029B019A3943E9601035934291D8FA
:101F200059B0F0BD062C00D878E7042D00D075E735
:101F3000FFF73AFF72E7C04660BF030011111111AD
:101F4000222222224444444488888888F0B5C5B0BF
:101F50000190140034A840221E0019F073F824AB3D
:101F60001F0000250093390034AB2A013800D21835
:101F70002031013505930837FFF72AFE042DF2D1F1
:101F80000098FFF75DFC249A236861685A40259BFE
:101F900024924B40269A2593A368E1685A40279BD8
:101FA00026924B40289A27932500236961695A405D
:101FB000299B28924B402A9A2993A369E1695A40A8
:101FC0002B9B2A924B402C9A2B93236A616A5A408E
:101FD0002D9B2C924B402E9A2D93A36A40355A404C
:101FE0002F9BE16A2E924B40309A2F93236B616BAB
:101FF0005A40319B30924B40329A3193A36BE16B44
:102000005A40339B32924B403393B3011093E31801
:10201000239324A8FFF782F924A8FFF795FE2799B8
:10202000249A8C462899259B069129991804079192
:102030002A99269E08912B99339F09912C990A91F0
:102040002D990B912E990C912F990D9130990E91FC
:1020500031990F9132990291110C08431190190C8A
:1020600010040843614612900804310C084361468D
:102070001390090C3004084307991490080406993A
:10208000090C08430699159008040799090C0843A0
:102090000999169008040899090C084308991790A3
:1020A00008040999090C08430B99189008040A9927
:1020B000090C08430A99199008040B99090C084364
:1020C0000D991A9008040C99090C08430C991B905F
:1020D00008040D99090C08430F991C9008040E99E7
:1020E000090C08430E991D9008040F99090C084328
:1020F00002991E90090C38040843029903900804C1
:10210000390C084304900298039941401F910499A7
:102110007940209111994A4012994B406146219390
:10212000139B5E40149B59402291159B0699594080
:102130000691169B079959400791179B089959409A
:102140000891189B099959400991199B0A9959407E
:102150000A911A9B0B9959400B911B9B0C99594062
:102160000C910D991C9B129859400D911D9B0E9935
:1021700059400E911E9B0F9959400F911F9B119929
:102180005940209B5840219B504059402B684B4060
:10219000696824934140039B2591139914985940F1
:1021A000049B5840029B78405940219B5140584025
:1021B000229B70404B40A968159A5940EB682691C4
:1021C000434016992793229B72404B4007994A40FF
:1021D00006994B40296951406A6928915A402992D1
:1021E000179B039A04995340189A4A4002997A40DF
:1021F0004B4006994B4007994A4009995940089B22
:102200005A40AB694B40E9692A935140039B199AA4
:102210002B915A4004991A9B4B4002997B404A40AB
:1022200008994A4009994B400B9951400A9A5340EA
:102230002A6A4A40696A2C9259402D911B9A0A9B3E
:102240001C995A400B9B4B400D994A400C994B40AE
:10225000A96A5140EA6A2E915A402F920C9B1D9A0E
:102260000D995A401E9B4B400F994A400E994B4086
:10227000296B51406A6B30915A4003990E9B319201
:1022800059400F9A049B5340209A51401F9A534043
:10229000AA6B4A40E96B40354B403393239B329203
:1022A000AB4200D0B5E624A8FFF738F824A8FFF722
:1022B0004BFD109B249AE418236861685A40259BC3
:1022C00024924B40269A2593A368E1685A40279BA5
:1022D00026924B40289A2793236961695A40299B8B
:1022E00028924B402A9A2993A369E1695A402B9B73
:1022F0002A924B402C9A2B93236A616A5A402D9B59
:102300002C924B402E9A2D93A36AE16A5A402F9B40
:102310002E924B40309A2F93236B616B5A40319B26
:1023200030924B40329A3193A36BE16B5A40339B0E
:1023300024A84B4033933292FFF782FA0023059C86
:1023400038480293009B00995F681A683D001B6A39
:10235000054003951D00496A054004950D001600CF
:102360000540069506403D06120A2A43350AAC464A
:102370003F0A039D074007971B0A0F063B432F0A9E
:1023800065463543AC46039D069E3D430395049D3B
:10239000049F2D0A3D43069F360A024037430497A7
:1023A000160A079F1643079A03403F0A3A431F0A3B
:1023B0001F436346090A014006920A0A0A4399B27A
:1023C000039BADB21B040B432360049BB6B21B04FA
:1023D0002B436360069BBFB21B043343A360029B85
:1023E000120401330293009B3A430833E2600093E6
:1023F000029B1034042BA5D1019A40320599019813
:1024000008C9059101990B70190A4170190C1B0E2E
:10241000C37003000433817001939342EED145B041
:10242000F0BDC046FF00FF00F0B5140015000F001E
:102430000600A5B0019002910393032D19D8A308BB
:102440009A00A51A944212D09C01029BA9001A1965
:1024500004A8FEF74FFF2A9B039A04A914A8FFF7CC
:1024600075FD019B2A01181914A918F0EBFD25B080
:10247000F0BD3A00102104A8FEF73CFF30002A9B73
:10248000039A04A9FFF762FD043D40374036D4E7C4
:1024900070B50600BCB040F2C0300D0018F080FCF2
:1024A0000400306010B96F20FAF75EFF290068461B
:1024B0002022FFF791FC0E2269462000FFF7D2FB95
:1024C0003CB070BD13B50E2400941B68FFF7ACFF41
:1024D00013BD10B5006818F06DFC10BDF0B50368B1
:1024E000CBB00C9343680D9383680E93C3680F932E
:1024F000036910934369119383691293C36913931A
:10250000036A1493436A1593836A1693C36A1793F5
:10251000036B1893436B1993836B1A93C36B1B93D1
:10252000036C1C93436C1D93836C1E93C36C1F93AD
:10253000036D2093436D2193836D2293C36D239389
:10254000036E2493436E2593836E2693C36E279365
:10255000036F2893436F2993836F2A93C36F2B9341
:10256000030080331A685B682C922D930300883334
:102570001A685B682E922F93030090331A685B6889
:1025800030923193030098331A685B683292339328
:102590000300A0331A685B68349235930300A833B4
:1025A0001A685B68369237930300B0331A685B6829
:1025B000389239930300B8331A683A925B683B93B8
:1025C0000300C0331A685B683C923D93014B019352
:1025D00002E0C04670BF0300169B0C9A17995A4040
:1025E0000D9B0E9D4B4020990F9C4A4021994B40DA
:1025F0002A994A402B994B4034995140359A0A9177
:102600005A40189B10995D40199B0B925C40229B8D
:102610001B9A5D40239B5C402C9B5D402D9B5C4046
:10262000369B5D40379B5C401A9BE70F5940119BDE
:102630005340249A5140259A53402E9A51402F9A44
:102640005340389A5140399A5A4009921C9B129A29
:102650001D9E5A40139B7340269E7240279E7340D6
:10266000309E7240319E73403A9E56403B9A3E9651
:102670005A403F92149B1E9A1F9E5340159A7240D7
:10268000289E7340299E7240329E7340339E724052
:102690003C9E734008933D9B6E005A403743630055
:1026A000EE0F1E43089B56405F40099B029703961E
:1026B000DF0F4E0037435B00CE0F1E430A9B7B406B
:1026C00004930B9B734005933F9BDF0F3E9B5E0083
:1026D0003743DE0F3F9B6F405B001E43089B664005
:1026E000D50F5C005200DB0F1343099A2C435A406C
:1026F0000B9B0992DA0F0A9B4C405B000B9913432A
:102700000A9A4900D20F0A433E99069759403F9BC7
:10271000199F53400B93029A0C9B089453400C93BF
:10272000039A0D9B0A9153409C46189A049B079666
:102730005A40059B110D5F403C0312033F0D1743A8
:10274000069B249A0C435A40259B510D73400D94CF
:10275000D202DC025B0D0C431A4318941992309A92
:10276000089B09995A40319B3D9D4B40DC0A51051D
:102770005B05D20A0C431A430A993C9B4B400B99C8
